{
  "_format": "hh-sol-artifact-1",
  "contractName": "MyERC721",
  "sourceName": "contracts/MyERC.sol",
  "abi": [
    {
      "inputs": [
        {
          "internalType": "string",
          "name": "name",
          "type": "string"
        },
        {
          "internalType": "string",
          "name": "symbol",
          "type": "string"
        }
      ],
      "stateMutability": "nonpayable",
      "type": "constructor"
    },
    {
      "anonymous": false,
      "inputs": [
        {
          "indexed": true,
          "internalType": "address",
          "name": "owner",
          "type": "address"
        },
        {
          "indexed": true,
          "internalType": "address",
          "name": "approved",
          "type": "address"
        },
        {
          "indexed": true,
          "internalType": "uint256",
          "name": "tokenId",
          "type": "uint256"
        }
      ],
      "name": "Approval",
      "type": "event"
    },
    {
      "anonymous": false,
      "inputs": [
        {
          "indexed": true,
          "internalType": "address",
          "name": "owner",
          "type": "address"
        },
        {
          "indexed": true,
          "internalType": "address",
          "name": "operator",
          "type": "address"
        },
        {
          "indexed": false,
          "internalType": "bool",
          "name": "approved",
          "type": "bool"
        }
      ],
      "name": "ApprovalForAll",
      "type": "event"
    },
    {
      "anonymous": false,
      "inputs": [
        {
          "indexed": true,
          "internalType": "address",
          "name": "from",
          "type": "address"
        },
        {
          "indexed": true,
          "internalType": "address",
          "name": "to",
          "type": "address"
        },
        {
          "indexed": true,
          "internalType": "uint256",
          "name": "tokenId",
          "type": "uint256"
        }
      ],
      "name": "Transfer",
      "type": "event"
    },
    {
      "inputs": [
        {
          "internalType": "address",
          "name": "to",
          "type": "address"
        },
        {
          "internalType": "uint256",
          "name": "tokenId",
          "type": "uint256"
        }
      ],
      "name": "approve",
      "outputs": [],
      "stateMutability": "nonpayable",
      "type": "function"
    },
    {
      "inputs": [
        {
          "internalType": "address",
          "name": "owner",
          "type": "address"
        }
      ],
      "name": "balanceOf",
      "outputs": [
        {
          "internalType": "uint256",
          "name": "",
          "type": "uint256"
        }
      ],
      "stateMutability": "view",
      "type": "function"
    },
    {
      "inputs": [
        {
          "internalType": "address",
          "name": "addr",
          "type": "address"
        }
      ],
      "name": "canClaimSouviner",
      "outputs": [],
      "stateMutability": "nonpayable",
      "type": "function"
    },
    {
      "inputs": [
        {
          "internalType": "address",
          "name": "addr",
          "type": "address"
        }
      ],
      "name": "claimSouviner",
      "outputs": [],
      "stateMutability": "nonpayable",
      "type": "function"
    },
    {
      "inputs": [
        {
          "internalType": "uint256",
          "name": "tokenId",
          "type": "uint256"
        }
      ],
      "name": "getApproved",
      "outputs": [
        {
          "internalType": "address",
          "name": "",
          "type": "address"
        }
      ],
      "stateMutability": "view",
      "type": "function"
    },
    {
      "inputs": [
        {
          "internalType": "address",
          "name": "addr",
          "type": "address"
        }
      ],
      "name": "ifCanClaimSouviner",
      "outputs": [
        {
          "internalType": "bool",
          "name": "",
          "type": "bool"
        }
      ],
      "stateMutability": "view",
      "type": "function"
    },
    {
      "inputs": [
        {
          "internalType": "address",
          "name": "owner",
          "type": "address"
        },
        {
          "internalType": "address",
          "name": "operator",
          "type": "address"
        }
      ],
      "name": "isApprovedForAll",
      "outputs": [
        {
          "internalType": "bool",
          "name": "",
          "type": "bool"
        }
      ],
      "stateMutability": "view",
      "type": "function"
    },
    {
      "inputs": [],
      "name": "name",
      "outputs": [
        {
          "internalType": "string",
          "name": "",
          "type": "string"
        }
      ],
      "stateMutability": "view",
      "type": "function"
    },
    {
      "inputs": [
        {
          "internalType": "uint256",
          "name": "tokenId",
          "type": "uint256"
        }
      ],
      "name": "ownerOf",
      "outputs": [
        {
          "internalType": "address",
          "name": "",
          "type": "address"
        }
      ],
      "stateMutability": "view",
      "type": "function"
    },
    {
      "inputs": [
        {
          "internalType": "address",
          "name": "from",
          "type": "address"
        },
        {
          "internalType": "address",
          "name": "to",
          "type": "address"
        },
        {
          "internalType": "uint256",
          "name": "tokenId",
          "type": "uint256"
        }
      ],
      "name": "safeTransferFrom",
      "outputs": [],
      "stateMutability": "nonpayable",
      "type": "function"
    },
    {
      "inputs": [
        {
          "internalType": "address",
          "name": "from",
          "type": "address"
        },
        {
          "internalType": "address",
          "name": "to",
          "type": "address"
        },
        {
          "internalType": "uint256",
          "name": "tokenId",
          "type": "uint256"
        },
        {
          "internalType": "bytes",
          "name": "data",
          "type": "bytes"
        }
      ],
      "name": "safeTransferFrom",
      "outputs": [],
      "stateMutability": "nonpayable",
      "type": "function"
    },
    {
      "inputs": [
        {
          "internalType": "address",
          "name": "operator",
          "type": "address"
        },
        {
          "internalType": "bool",
          "name": "approved",
          "type": "bool"
        }
      ],
      "name": "setApprovalForAll",
      "outputs": [],
      "stateMutability": "nonpayable",
      "type": "function"
    },
    {
      "inputs": [
        {
          "internalType": "bytes4",
          "name": "interfaceId",
          "type": "bytes4"
        }
      ],
      "name": "supportsInterface",
      "outputs": [
        {
          "internalType": "bool",
          "name": "",
          "type": "bool"
        }
      ],
      "stateMutability": "view",
      "type": "function"
    },
    {
      "inputs": [],
      "name": "symbol",
      "outputs": [
        {
          "internalType": "string",
          "name": "",
          "type": "string"
        }
      ],
      "stateMutability": "view",
      "type": "function"
    },
    {
      "inputs": [
        {
          "internalType": "uint256",
          "name": "tokenId",
          "type": "uint256"
        }
      ],
      "name": "tokenURI",
      "outputs": [
        {
          "internalType": "string",
          "name": "",
          "type": "string"
        }
      ],
      "stateMutability": "view",
      "type": "function"
    },
    {
      "inputs": [
        {
          "internalType": "address",
          "name": "from",
          "type": "address"
        },
        {
          "internalType": "address",
          "name": "to",
          "type": "address"
        },
        {
          "internalType": "uint256",
          "name": "tokenId",
          "type": "uint256"
        }
      ],
      "name": "transferFrom",
      "outputs": [],
      "stateMutability": "nonpayable",
      "type": "function"
    }
  ],
  "bytecode": "0x60806040523480156200001157600080fd5b5060405162002f7b38038062002f7b833981810160405281019062000037919062000545565b8181816000908051906020019062000051929190620002f8565b5080600190805190602001906200006a929190620002f8565b505050620000803360646200008860201b60201c565b5050620007ba565b600073ffffffffffffffffffffffffffffffffffffffff168273ffffffffffffffffffffffffffffffffffffffff161415620000fb576040517f08c379a0000000000000000000000000000000000000000000000000000000008152600401620000f2906200062b565b60405180910390fd5b6200010c816200028260201b60201c565b156200014f576040517f08c379a000000000000000000000000000000000000000000000000000000000815260040162000146906200069d565b60405180910390fd5b6200016360008383620002ee60201b60201c565b6001600360008473ffffffffffffffffffffffffffffffffffffffff1673ffffffffffffffffffffffffffffffffffffffff1681526020019081526020016000206000828254620001b59190620006f8565b92505081905550816002600083815260200190815260200160002060006101000a81548173ffffffffffffffffffffffffffffffffffffffff021916908373ffffffffffffffffffffffffffffffffffffffff160217905550808273ffffffffffffffffffffffffffffffffffffffff16600073ffffffffffffffffffffffffffffffffffffffff167fddf252ad1be2c89b69c2b068fc378daa952ba7f163c4a11628f55a4df523b3ef60405160405180910390a46200027e60008383620002f360201b60201c565b5050565b60008073ffffffffffffffffffffffffffffffffffffffff166002600084815260200190815260200160002060009054906101000a900473ffffffffffffffffffffffffffffffffffffffff1673ffffffffffffffffffffffffffffffffffffffff1614159050919050565b505050565b505050565b828054620003069062000784565b90600052602060002090601f0160209004810192826200032a576000855562000376565b82601f106200034557805160ff191683800117855562000376565b8280016001018555821562000376579182015b828111156200037557825182559160200191906001019062000358565b5b50905062000385919062000389565b5090565b5b80821115620003a45760008160009055506001016200038a565b5090565b6000604051905090565b600080fd5b600080fd5b600080fd5b600080fd5b6000601f19601f8301169050919050565b7f4e487b7100000000000000000000000000000000000000000000000000000000600052604160045260246000fd5b6200041182620003c6565b810181811067ffffffffffffffff82111715620004335762000432620003d7565b5b80604052505050565b600062000448620003a8565b905062000456828262000406565b919050565b600067ffffffffffffffff821115620004795762000478620003d7565b5b6200048482620003c6565b9050602081019050919050565b60005b83811015620004b157808201518184015260208101905062000494565b83811115620004c1576000848401525b50505050565b6000620004de620004d8846200045b565b6200043c565b905082815260208101848484011115620004fd57620004fc620003c1565b5b6200050a84828562000491565b509392505050565b600082601f8301126200052a5762000529620003bc565b5b81516200053c848260208601620004c7565b91505092915050565b600080604083850312156200055f576200055e620003b2565b5b600083015167ffffffffffffffff81111562000580576200057f620003b7565b5b6200058e8582860162000512565b925050602083015167ffffffffffffffff811115620005b257620005b1620003b7565b5b620005c08582860162000512565b9150509250929050565b600082825260208201905092915050565b7f4552433732313a206d696e7420746f20746865207a65726f2061646472657373600082015250565b600062000613602083620005ca565b91506200062082620005db565b602082019050919050565b60006020820190508181036000830152620006468162000604565b9050919050565b7f4552433732313a20746f6b656e20616c7265616479206d696e74656400000000600082015250565b600062000685601c83620005ca565b915062000692826200064d565b602082019050919050565b60006020820190508181036000830152620006b88162000676565b9050919050565b6000819050919050565b7f4e487b7100000000000000000000000000000000000000000000000000000000600052601160045260246000fd5b60006200070582620006bf565b91506200071283620006bf565b9250827fffffffffffffffffffffffffffffffffffffffffffffffffffffffffffffffff038211156200074a5762000749620006c9565b5b828201905092915050565b7f4e487b7100000000000000000000000000000000000000000000000000000000600052602260045260246000fd5b600060028204905060018216806200079d57607f821691505b60208210811415620007b457620007b362000755565b5b50919050565b6127b180620007ca6000396000f3fe608060405234801561001057600080fd5b50600436106101005760003560e01c806370a0823111610097578063b88d4fde11610066578063b88d4fde146102bd578063c2a22faa146102d9578063c87b56dd146102f5578063e985e9c51461032557610100565b806370a08231146102235780638e0ae11b1461025357806395d89b4114610283578063a22cb465146102a157610100565b80631bbf2bf3116100d35780631bbf2bf31461019f57806323b872dd146101bb57806342842e0e146101d75780636352211e146101f357610100565b806301ffc9a71461010557806306fdde0314610135578063081812fc14610153578063095ea7b314610183575b600080fd5b61011f600480360381019061011a91906118a4565b610355565b60405161012c91906118ec565b60405180910390f35b61013d610437565b60405161014a91906119a0565b60405180910390f35b61016d600480360381019061016891906119f8565b6104c9565b60405161017a9190611a66565b60405180910390f35b61019d60048036038101906101989190611aad565b61050f565b005b6101b960048036038101906101b49190611aed565b610627565b005b6101d560048036038101906101d09190611b1a565b61077d565b005b6101f160048036038101906101ec9190611b1a565b6107dd565b005b61020d600480360381019061020891906119f8565b6107fd565b60405161021a9190611a66565b60405180910390f35b61023d60048036038101906102389190611aed565b6108af565b60405161024a9190611b7c565b60405180910390f35b61026d60048036038101906102689190611aed565b610967565b60405161027a91906118ec565b60405180910390f35b61028b610a1a565b60405161029891906119a0565b60405180910390f35b6102bb60048036038101906102b69190611bc3565b610aac565b005b6102d760048036038101906102d29190611d38565b610ac2565b005b6102f360048036038101906102ee9190611aed565b610b24565b005b61030f600480360381019061030a91906119f8565b610b7f565b60405161031c91906119a0565b60405180910390f35b61033f600480360381019061033a9190611dbb565b610be7565b60405161034c91906118ec565b60405180910390f35b60007f80ac58cd000000000000000000000000000000000000000000000000000000007bffffffffffffffffffffffffffffffffffffffffffffffffffffffff1916827bffffffffffffffffffffffffffffffffffffffffffffffffffffffff1916148061042057507f5b5e139f000000000000000000000000000000000000000000000000000000007bffffffffffffffffffffffffffffffffffffffffffffffffffffffff1916827bffffffffffffffffffffffffffffffffffffffffffffffffffffffff1916145b80610430575061042f82610c7b565b5b9050919050565b60606000805461044690611e2a565b80601f016020809104026020016040519081016040528092919081815260200182805461047290611e2a565b80156104bf5780601f10610494576101008083540402835291602001916104bf565b820191906000526020600020905b8154815290600101906020018083116104a257829003601f168201915b5050505050905090565b60006104d482610ce5565b6004600083815260200190815260200160002060009054906101000a900473ffffffffffffffffffffffffffffffffffffffff169050919050565b600061051a826107fd565b90508073ffffffffffffffffffffffffffffffffffffffff168373ffffffffffffffffffffffffffffffffffffffff16141561058b576040517f08c379a000000000000000000000000000000000000000000000000000000000815260040161058290611ece565b60405180910390fd5b8073ffffffffffffffffffffffffffffffffffffffff166105aa610d30565b73ffffffffffffffffffffffffffffffffffffffff1614806105d957506105d8816105d3610d30565b610be7565b5b610618576040517f08c379a000000000000000000000000000000000000000000000000000000000815260040161060f90611f60565b60405180910390fd5b6106228383610d38565b505050565b60011515600660008373ffffffffffffffffffffffffffffffffffffffff1673ffffffffffffffffffffffffffffffffffffffff16815260200190815260200160002060009054906101000a900460ff1615151480156106d8575060011515600760008373ffffffffffffffffffffffffffffffffffffffff1673ffffffffffffffffffffffffffffffffffffffff16815260200190815260200160002060009054906101000a900460ff16151514155b610717576040517f08c379a000000000000000000000000000000000000000000000000000000000815260040161070e90611fcc565b60405180910390fd5b610722816001610df1565b6001600760008373ffffffffffffffffffffffffffffffffffffffff1673ffffffffffffffffffffffffffffffffffffffff16815260200190815260200160002060006101000a81548160ff02191690831515021790555050565b61078e610788610d30565b82610fcb565b6107cd576040517f08c379a00000000000000000000000000000000000000000000000000000000081526004016107c49061205e565b60405180910390fd5b6107d8838383611060565b505050565b6107f883838360405180602001604052806000815250610ac2565b505050565b6000806002600084815260200190815260200160002060009054906101000a900473ffffffffffffffffffffffffffffffffffffffff169050600073ffffffffffffffffffffffffffffffffffffffff168173ffffffffffffffffffffffffffffffffffffffff1614156108a6576040517f08c379a000000000000000000000000000000000000000000000000000000000815260040161089d906120ca565b60405180910390fd5b80915050919050565b60008073ffffffffffffffffffffffffffffffffffffffff168273ffffffffffffffffffffffffffffffffffffffff161415610920576040517f08c379a00000000000000000000000000000000000000000000000000000000081526004016109179061215c565b60405180910390fd5b600360008373ffffffffffffffffffffffffffffffffffffffff1673ffffffffffffffffffffffffffffffffffffffff168152602001908152602001600020549050919050565b6000600660008373ffffffffffffffffffffffffffffffffffffffff1673ffffffffffffffffffffffffffffffffffffffff16815260200190815260200160002060009054906101000a900460ff168015610a13575060011515600760008473ffffffffffffffffffffffffffffffffffffffff1673ffffffffffffffffffffffffffffffffffffffff16815260200190815260200160002060009054906101000a900460ff16151514155b9050919050565b606060018054610a2990611e2a565b80601f0160208091040260200160405190810160405280929190818152602001828054610a5590611e2a565b8015610aa25780601f10610a7757610100808354040283529160200191610aa2565b820191906000526020600020905b815481529060010190602001808311610a8557829003601f168201915b5050505050905090565b610abe610ab7610d30565b83836112c7565b5050565b610ad3610acd610d30565b83610fcb565b610b12576040517f08c379a0000000000000000000000000000000000000000000000000000000008152600401610b099061205e565b60405180910390fd5b610b1e84848484611434565b50505050565b6001600660008373ffffffffffffffffffffffffffffffffffffffff1673ffffffffffffffffffffffffffffffffffffffff16815260200190815260200160002060006101000a81548160ff02191690831515021790555050565b6060610b8a82610ce5565b6000610b94611490565b90506000815111610bb45760405180602001604052806000815250610bdf565b80610bbe846114a7565b604051602001610bcf9291906121b8565b6040516020818303038152906040525b915050919050565b6000600560008473ffffffffffffffffffffffffffffffffffffffff1673ffffffffffffffffffffffffffffffffffffffff16815260200190815260200160002060008373ffffffffffffffffffffffffffffffffffffffff1673ffffffffffffffffffffffffffffffffffffffff16815260200190815260200160002060009054906101000a900460ff16905092915050565b60007f01ffc9a7000000000000000000000000000000000000000000000000000000007bffffffffffffffffffffffffffffffffffffffffffffffffffffffff1916827bffffffffffffffffffffffffffffffffffffffffffffffffffffffff1916149050919050565b610cee81611608565b610d2d576040517f08c379a0000000000000000000000000000000000000000000000000000000008152600401610d24906120ca565b60405180910390fd5b50565b600033905090565b816004600083815260200190815260200160002060006101000a81548173ffffffffffffffffffffffffffffffffffffffff021916908373ffffffffffffffffffffffffffffffffffffffff160217905550808273ffffffffffffffffffffffffffffffffffffffff16610dab836107fd565b73ffffffffffffffffffffffffffffffffffffffff167f8c5be1e5ebec7d5bd14f71427d1e84f3dd0314c0f7b2291e5b200ac8c7c3b92560405160405180910390a45050565b600073ffffffffffffffffffffffffffffffffffffffff168273ffffffffffffffffffffffffffffffffffffffff161415610e61576040517f08c379a0000000000000000000000000000000000000000000000000000000008152600401610e5890612228565b60405180910390fd5b610e6a81611608565b15610eaa576040517f08c379a0000000000000000000000000000000000000000000000000000000008152600401610ea190612294565b60405180910390fd5b610eb660008383611674565b6001600360008473ffffffffffffffffffffffffffffffffffffffff1673ffffffffffffffffffffffffffffffffffffffff1681526020019081526020016000206000828254610f0691906122e3565b92505081905550816002600083815260200190815260200160002060006101000a81548173ffffffffffffffffffffffffffffffffffffffff021916908373ffffffffffffffffffffffffffffffffffffffff160217905550808273ffffffffffffffffffffffffffffffffffffffff16600073ffffffffffffffffffffffffffffffffffffffff167fddf252ad1be2c89b69c2b068fc378daa952ba7f163c4a11628f55a4df523b3ef60405160405180910390a4610fc760008383611679565b5050565b600080610fd7836107fd565b90508073ffffffffffffffffffffffffffffffffffffffff168473ffffffffffffffffffffffffffffffffffffffff16148061101957506110188185610be7565b5b8061105757508373ffffffffffffffffffffffffffffffffffffffff1661103f846104c9565b73ffffffffffffffffffffffffffffffffffffffff16145b91505092915050565b8273ffffffffffffffffffffffffffffffffffffffff16611080826107fd565b73ffffffffffffffffffffffffffffffffffffffff16146110d6576040517f08c379a00000000000000000000000000000000000000000000000000000000081526004016110cd906123ab565b60405180910390fd5b600073ffffffffffffffffffffffffffffffffffffffff168273ffffffffffffffffffffffffffffffffffffffff161415611146576040517f08c379a000000000000000000000000000000000000000000000000000000000815260040161113d9061243d565b60405180910390fd5b611151838383611674565b61115c600082610d38565b6001600360008573ffffffffffffffffffffffffffffffffffffffff1673ffffffffffffffffffffffffffffffffffffffff16815260200190815260200160002060008282546111ac919061245d565b925050819055506001600360008473ffffffffffffffffffffffffffffffffffffffff1673ffffffffffffffffffffffffffffffffffffffff168152602001908152602001600020600082825461120391906122e3565b92505081905550816002600083815260200190815260200160002060006101000a81548173ffffffffffffffffffffffffffffffffffffffff021916908373ffffffffffffffffffffffffffffffffffffffff160217905550808273ffffffffffffffffffffffffffffffffffffffff168473ffffffffffffffffffffffffffffffffffffffff167fddf252ad1be2c89b69c2b068fc378daa952ba7f163c4a11628f55a4df523b3ef60405160405180910390a46112c2838383611679565b505050565b8173ffffffffffffffffffffffffffffffffffffffff168373ffffffffffffffffffffffffffffffffffffffff161415611336576040517f08c379a000000000000000000000000000000000000000000000000000000000815260040161132d906124dd565b60405180910390fd5b80600560008573ffffffffffffffffffffffffffffffffffffffff1673ffffffffffffffffffffffffffffffffffffffff16815260200190815260200160002060008473ffffffffffffffffffffffffffffffffffffffff1673ffffffffffffffffffffffffffffffffffffffff16815260200190815260200160002060006101000a81548160ff0219169083151502179055508173ffffffffffffffffffffffffffffffffffffffff168373ffffffffffffffffffffffffffffffffffffffff167f17307eab39ab6107e8899845ad3d59bd9653f200f220920489ca2b5937696c318360405161142791906118ec565b60405180910390a3505050565b61143f848484611060565b61144b8484848461167e565b61148a576040517f08c379a00000000000000000000000000000000000000000000000000000000081526004016114819061256f565b60405180910390fd5b50505050565b606060405180602001604052806000815250905090565b606060008214156114ef576040518060400160405280600181526020017f30000000000000000000000000000000000000000000000000000000000000008152509050611603565b600082905060005b6000821461152157808061150a9061258f565b915050600a8261151a9190612607565b91506114f7565b60008167ffffffffffffffff81111561153d5761153c611c0d565b5b6040519080825280601f01601f19166020018201604052801561156f5781602001600182028036833780820191505090505b5090505b600085146115fc57600182611588919061245d565b9150600a856115979190612638565b60306115a391906122e3565b60f81b8183815181106115b9576115b8612669565b5b60200101907effffffffffffffffffffffffffffffffffffffffffffffffffffffffffffff1916908160001a905350600a856115f59190612607565b9450611573565b8093505050505b919050565b60008073ffffffffffffffffffffffffffffffffffffffff166002600084815260200190815260200160002060009054906101000a900473ffffffffffffffffffffffffffffffffffffffff1673ffffffffffffffffffffffffffffffffffffffff1614159050919050565b505050565b505050565b600061169f8473ffffffffffffffffffffffffffffffffffffffff16611815565b15611808578373ffffffffffffffffffffffffffffffffffffffff1663150b7a026116c8610d30565b8786866040518563ffffffff1660e01b81526004016116ea94939291906126ed565b602060405180830381600087803b15801561170457600080fd5b505af192505050801561173557506040513d601f19601f82011682018060405250810190611732919061274e565b60015b6117b8573d8060008114611765576040519150601f19603f3d011682016040523d82523d6000602084013e61176a565b606091505b506000815114156117b0576040517f08c379a00000000000000000000000000000000000000000000000000000000081526004016117a79061256f565b60405180910390fd5b805181602001fd5b63150b7a0260e01b7bffffffffffffffffffffffffffffffffffffffffffffffffffffffff1916817bffffffffffffffffffffffffffffffffffffffffffffffffffffffff19161491505061180d565b600190505b949350505050565b6000808273ffffffffffffffffffffffffffffffffffffffff163b119050919050565b6000604051905090565b600080fd5b600080fd5b60007fffffffff0000000000000000000000000000000000000000000000000000000082169050919050565b6118818161184c565b811461188c57600080fd5b50565b60008135905061189e81611878565b92915050565b6000602082840312156118ba576118b9611842565b5b60006118c88482850161188f565b91505092915050565b60008115159050919050565b6118e6816118d1565b82525050565b600060208201905061190160008301846118dd565b92915050565b600081519050919050565b600082825260208201905092915050565b60005b83811015611941578082015181840152602081019050611926565b83811115611950576000848401525b50505050565b6000601f19601f8301169050919050565b600061197282611907565b61197c8185611912565b935061198c818560208601611923565b61199581611956565b840191505092915050565b600060208201905081810360008301526119ba8184611967565b905092915050565b6000819050919050565b6119d5816119c2565b81146119e057600080fd5b50565b6000813590506119f2816119cc565b92915050565b600060208284031215611a0e57611a0d611842565b5b6000611a1c848285016119e3565b91505092915050565b600073ffffffffffffffffffffffffffffffffffffffff82169050919050565b6000611a5082611a25565b9050919050565b611a6081611a45565b82525050565b6000602082019050611a7b6000830184611a57565b92915050565b611a8a81611a45565b8114611a9557600080fd5b50565b600081359050611aa781611a81565b92915050565b60008060408385031215611ac457611ac3611842565b5b6000611ad285828601611a98565b9250506020611ae3858286016119e3565b9150509250929050565b600060208284031215611b0357611b02611842565b5b6000611b1184828501611a98565b91505092915050565b600080600060608486031215611b3357611b32611842565b5b6000611b4186828701611a98565b9350506020611b5286828701611a98565b9250506040611b63868287016119e3565b9150509250925092565b611b76816119c2565b82525050565b6000602082019050611b916000830184611b6d565b92915050565b611ba0816118d1565b8114611bab57600080fd5b50565b600081359050611bbd81611b97565b92915050565b60008060408385031215611bda57611bd9611842565b5b6000611be885828601611a98565b9250506020611bf985828601611bae565b9150509250929050565b600080fd5b600080fd5b7f4e487b7100000000000000000000000000000000000000000000000000000000600052604160045260246000fd5b611c4582611956565b810181811067ffffffffffffffff82111715611c6457611c63611c0d565b5b80604052505050565b6000611c77611838565b9050611c838282611c3c565b919050565b600067ffffffffffffffff821115611ca357611ca2611c0d565b5b611cac82611956565b9050602081019050919050565b82818337600083830152505050565b6000611cdb611cd684611c88565b611c6d565b905082815260208101848484011115611cf757611cf6611c08565b5b611d02848285611cb9565b509392505050565b600082601f830112611d1f57611d1e611c03565b5b8135611d2f848260208601611cc8565b91505092915050565b60008060008060808587031215611d5257611d51611842565b5b6000611d6087828801611a98565b9450506020611d7187828801611a98565b9350506040611d82878288016119e3565b925050606085013567ffffffffffffffff811115611da357611da2611847565b5b611daf87828801611d0a565b91505092959194509250565b60008060408385031215611dd257611dd1611842565b5b6000611de085828601611a98565b9250506020611df185828601611a98565b9150509250929050565b7f4e487b7100000000000000000000000000000000000000000000000000000000600052602260045260246000fd5b60006002820490506001821680611e4257607f821691505b60208210811415611e5657611e55611dfb565b5b50919050565b7f4552433732313a20617070726f76616c20746f2063757272656e74206f776e6560008201527f7200000000000000000000000000000000000000000000000000000000000000602082015250565b6000611eb8602183611912565b9150611ec382611e5c565b604082019050919050565b60006020820190508181036000830152611ee781611eab565b9050919050565b7f4552433732313a20617070726f76652063616c6c6572206973206e6f7420746f60008201527f6b656e206f776e6572206e6f7220617070726f76656420666f7220616c6c0000602082015250565b6000611f4a603e83611912565b9150611f5582611eee565b604082019050919050565b60006020820190508181036000830152611f7981611f3d565b9050919050565b7f596f752063616e6e6f74206d6f726520736f7576696e65722100000000000000600082015250565b6000611fb6601983611912565b9150611fc182611f80565b602082019050919050565b60006020820190508181036000830152611fe581611fa9565b9050919050565b7f4552433732313a2063616c6c6572206973206e6f7420746f6b656e206f776e6560008201527f72206e6f7220617070726f766564000000000000000000000000000000000000602082015250565b6000612048602e83611912565b915061205382611fec565b604082019050919050565b600060208201905081810360008301526120778161203b565b9050919050565b7f4552433732313a20696e76616c696420746f6b656e2049440000000000000000600082015250565b60006120b4601883611912565b91506120bf8261207e565b602082019050919050565b600060208201905081810360008301526120e3816120a7565b9050919050565b7f4552433732313a2061646472657373207a65726f206973206e6f74206120766160008201527f6c6964206f776e65720000000000000000000000000000000000000000000000602082015250565b6000612146602983611912565b9150612151826120ea565b604082019050919050565b6000602082019050818103600083015261217581612139565b9050919050565b600081905092915050565b600061219282611907565b61219c818561217c565b93506121ac818560208601611923565b80840191505092915050565b60006121c48285612187565b91506121d08284612187565b91508190509392505050565b7f4552433732313a206d696e7420746f20746865207a65726f2061646472657373600082015250565b6000612212602083611912565b915061221d826121dc565b602082019050919050565b6000602082019050818103600083015261224181612205565b9050919050565b7f4552433732313a20746f6b656e20616c7265616479206d696e74656400000000600082015250565b600061227e601c83611912565b915061228982612248565b602082019050919050565b600060208201905081810360008301526122ad81612271565b9050919050565b7f4e487b7100000000000000000000000000000000000000000000000000000000600052601160045260246000fd5b60006122ee826119c2565b91506122f9836119c2565b9250827fffffffffffffffffffffffffffffffffffffffffffffffffffffffffffffffff0382111561232e5761232d6122b4565b5b828201905092915050565b7f4552433732313a207472616e736665722066726f6d20696e636f72726563742060008201527f6f776e6572000000000000000000000000000000000000000000000000000000602082015250565b6000612395602583611912565b91506123a082612339565b604082019050919050565b600060208201905081810360008301526123c481612388565b9050919050565b7f4552433732313a207472616e7366657220746f20746865207a65726f2061646460008201527f7265737300000000000000000000000000000000000000000000000000000000602082015250565b6000612427602483611912565b9150612432826123cb565b604082019050919050565b600060208201905081810360008301526124568161241a565b9050919050565b6000612468826119c2565b9150612473836119c2565b925082821015612486576124856122b4565b5b828203905092915050565b7f4552433732313a20617070726f766520746f2063616c6c657200000000000000600082015250565b60006124c7601983611912565b91506124d282612491565b602082019050919050565b600060208201905081810360008301526124f6816124ba565b9050919050565b7f4552433732313a207472616e7366657220746f206e6f6e20455243373231526560008201527f63656976657220696d706c656d656e7465720000000000000000000000000000602082015250565b6000612559603283611912565b9150612564826124fd565b604082019050919050565b600060208201905081810360008301526125888161254c565b9050919050565b600061259a826119c2565b91507fffffffffffffffffffffffffffffffffffffffffffffffffffffffffffffffff8214156125cd576125cc6122b4565b5b600182019050919050565b7f4e487b7100000000000000000000000000000000000000000000000000000000600052601260045260246000fd5b6000612612826119c2565b915061261d836119c2565b92508261262d5761262c6125d8565b5b828204905092915050565b6000612643826119c2565b915061264e836119c2565b92508261265e5761265d6125d8565b5b828206905092915050565b7f4e487b7100000000000000000000000000000000000000000000000000000000600052603260045260246000fd5b600081519050919050565b600082825260208201905092915050565b60006126bf82612698565b6126c981856126a3565b93506126d9818560208601611923565b6126e281611956565b840191505092915050565b60006080820190506127026000830187611a57565b61270f6020830186611a57565b61271c6040830185611b6d565b818103606083015261272e81846126b4565b905095945050505050565b60008151905061274881611878565b92915050565b60006020828403121561276457612763611842565b5b600061277284828501612739565b9150509291505056fea2646970667358221220f6714b3820416ed03a4b39a8bea7e01cccfd01e85d54365eda917595f0e5507764736f6c63430008090033",
  "linkReferences": {},
  "deployedLinkReferences": {}
}