{
  "_format": "hh-sol-artifact-1",
  "contractName": "StudentSocialDAO",
  "sourceName": "contracts/StudentSocialDAO.sol",
  "abi": [
    {
      "inputs": [],
      "stateMutability": "nonpayable",
      "type": "constructor"
    },
    {
      "anonymous": false,
      "inputs": [
        {
          "indexed": false,
          "internalType": "uint32",
          "name": "proposalIndex",
          "type": "uint32"
        }
      ],
      "name": "ProposalInitiated",
      "type": "event"
    },
    {
      "anonymous": false,
      "inputs": [
        {
          "indexed": false,
          "internalType": "uint32",
          "name": "proposalIndex",
          "type": "uint32"
        },
        {
          "indexed": false,
          "internalType": "uint32",
          "name": "amount",
          "type": "uint32"
        }
      ],
      "name": "ProposalOpposed",
      "type": "event"
    },
    {
      "anonymous": false,
      "inputs": [
        {
          "indexed": false,
          "internalType": "uint32",
          "name": "proposalIndex",
          "type": "uint32"
        },
        {
          "indexed": false,
          "internalType": "uint32",
          "name": "amount",
          "type": "uint32"
        }
      ],
      "name": "ProposalSupported",
      "type": "event"
    },
    {
      "inputs": [],
      "name": "INITIAL_POINTS",
      "outputs": [
        {
          "internalType": "uint32",
          "name": "",
          "type": "uint32"
        }
      ],
      "stateMutability": "view",
      "type": "function"
    },
    {
      "inputs": [],
      "name": "PROPOSAL_COST",
      "outputs": [
        {
          "internalType": "uint32",
          "name": "",
          "type": "uint32"
        }
      ],
      "stateMutability": "view",
      "type": "function"
    },
    {
      "inputs": [],
      "name": "PROPOSAL_REWARD",
      "outputs": [
        {
          "internalType": "uint32",
          "name": "",
          "type": "uint32"
        }
      ],
      "stateMutability": "view",
      "type": "function"
    },
    {
      "inputs": [],
      "name": "VOTE_COST",
      "outputs": [
        {
          "internalType": "uint32",
          "name": "",
          "type": "uint32"
        }
      ],
      "stateMutability": "view",
      "type": "function"
    },
    {
      "inputs": [
        {
          "internalType": "uint32",
          "name": "index",
          "type": "uint32"
        }
      ],
      "name": "abortProposal",
      "outputs": [],
      "stateMutability": "nonpayable",
      "type": "function"
    },
    {
      "inputs": [],
      "name": "getNow",
      "outputs": [
        {
          "internalType": "uint256",
          "name": "",
          "type": "uint256"
        }
      ],
      "stateMutability": "view",
      "type": "function"
    },
    {
      "inputs": [
        {
          "internalType": "uint32",
          "name": "_index",
          "type": "uint32"
        }
      ],
      "name": "getProposalContent",
      "outputs": [
        {
          "internalType": "string",
          "name": "",
          "type": "string"
        }
      ],
      "stateMutability": "view",
      "type": "function"
    },
    {
      "inputs": [
        {
          "internalType": "uint32",
          "name": "_index",
          "type": "uint32"
        }
      ],
      "name": "getProposalDuration",
      "outputs": [
        {
          "internalType": "uint256",
          "name": "",
          "type": "uint256"
        }
      ],
      "stateMutability": "view",
      "type": "function"
    },
    {
      "inputs": [
        {
          "internalType": "uint32",
          "name": "_index",
          "type": "uint32"
        }
      ],
      "name": "getProposalEndTime",
      "outputs": [
        {
          "internalType": "uint256",
          "name": "",
          "type": "uint256"
        }
      ],
      "stateMutability": "view",
      "type": "function"
    },
    {
      "inputs": [
        {
          "internalType": "uint32",
          "name": "_index",
          "type": "uint32"
        }
      ],
      "name": "getProposalName",
      "outputs": [
        {
          "internalType": "string",
          "name": "",
          "type": "string"
        }
      ],
      "stateMutability": "view",
      "type": "function"
    },
    {
      "inputs": [
        {
          "internalType": "uint32",
          "name": "_index",
          "type": "uint32"
        }
      ],
      "name": "getProposalOppose",
      "outputs": [
        {
          "internalType": "uint32",
          "name": "",
          "type": "uint32"
        }
      ],
      "stateMutability": "view",
      "type": "function"
    },
    {
      "inputs": [
        {
          "internalType": "uint32",
          "name": "_index",
          "type": "uint32"
        }
      ],
      "name": "getProposalStartTime",
      "outputs": [
        {
          "internalType": "uint256",
          "name": "",
          "type": "uint256"
        }
      ],
      "stateMutability": "view",
      "type": "function"
    },
    {
      "inputs": [
        {
          "internalType": "uint32",
          "name": "_index",
          "type": "uint32"
        }
      ],
      "name": "getProposalState",
      "outputs": [
        {
          "internalType": "enum StudentSocialDAO.State",
          "name": "",
          "type": "uint8"
        }
      ],
      "stateMutability": "view",
      "type": "function"
    },
    {
      "inputs": [
        {
          "internalType": "uint32",
          "name": "_index",
          "type": "uint32"
        }
      ],
      "name": "getProposalSupport",
      "outputs": [
        {
          "internalType": "uint32",
          "name": "",
          "type": "uint32"
        }
      ],
      "stateMutability": "view",
      "type": "function"
    },
    {
      "inputs": [
        {
          "internalType": "uint32",
          "name": "_index",
          "type": "uint32"
        }
      ],
      "name": "getProposalTitle",
      "outputs": [
        {
          "internalType": "string",
          "name": "",
          "type": "string"
        }
      ],
      "stateMutability": "view",
      "type": "function"
    },
    {
      "inputs": [
        {
          "internalType": "address",
          "name": "addr",
          "type": "address"
        }
      ],
      "name": "getUserPass",
      "outputs": [
        {
          "internalType": "uint32",
          "name": "",
          "type": "uint32"
        }
      ],
      "stateMutability": "view",
      "type": "function"
    },
    {
      "inputs": [
        {
          "internalType": "address",
          "name": "addr",
          "type": "address"
        }
      ],
      "name": "getUserProposals",
      "outputs": [
        {
          "internalType": "uint32",
          "name": "",
          "type": "uint32"
        }
      ],
      "stateMutability": "view",
      "type": "function"
    },
    {
      "inputs": [
        {
          "internalType": "string",
          "name": "_name",
          "type": "string"
        },
        {
          "internalType": "string",
          "name": "_title",
          "type": "string"
        },
        {
          "internalType": "uint256",
          "name": "_duration",
          "type": "uint256"
        },
        {
          "internalType": "string",
          "name": "_content",
          "type": "string"
        }
      ],
      "name": "initiateProposal",
      "outputs": [],
      "stateMutability": "payable",
      "type": "function"
    },
    {
      "inputs": [
        {
          "internalType": "uint32",
          "name": "_index",
          "type": "uint32"
        }
      ],
      "name": "isProposalOverdue",
      "outputs": [
        {
          "internalType": "bool",
          "name": "",
          "type": "bool"
        }
      ],
      "stateMutability": "view",
      "type": "function"
    },
    {
      "inputs": [
        {
          "internalType": "uint32",
          "name": "_index",
          "type": "uint32"
        }
      ],
      "name": "isSupportGreaterOpposse",
      "outputs": [
        {
          "internalType": "bool",
          "name": "",
          "type": "bool"
        }
      ],
      "stateMutability": "view",
      "type": "function"
    },
    {
      "inputs": [
        {
          "internalType": "uint32",
          "name": "index",
          "type": "uint32"
        },
        {
          "internalType": "uint32",
          "name": "amount",
          "type": "uint32"
        }
      ],
      "name": "opposeProposal",
      "outputs": [],
      "stateMutability": "payable",
      "type": "function"
    },
    {
      "inputs": [
        {
          "internalType": "uint32",
          "name": "index",
          "type": "uint32"
        }
      ],
      "name": "passProposal",
      "outputs": [],
      "stateMutability": "nonpayable",
      "type": "function"
    },
    {
      "inputs": [
        {
          "internalType": "uint32",
          "name": "",
          "type": "uint32"
        }
      ],
      "name": "proposals",
      "outputs": [
        {
          "internalType": "uint32",
          "name": "index",
          "type": "uint32"
        },
        {
          "internalType": "address",
          "name": "proposer",
          "type": "address"
        },
        {
          "internalType": "string",
          "name": "name",
          "type": "string"
        },
        {
          "internalType": "string",
          "name": "title",
          "type": "string"
        },
        {
          "internalType": "uint256",
          "name": "startTime",
          "type": "uint256"
        },
        {
          "internalType": "uint256",
          "name": "duration",
          "type": "uint256"
        },
        {
          "internalType": "string",
          "name": "content",
          "type": "string"
        },
        {
          "internalType": "uint32",
          "name": "support",
          "type": "uint32"
        },
        {
          "internalType": "uint32",
          "name": "oppose",
          "type": "uint32"
        },
        {
          "internalType": "enum StudentSocialDAO.State",
          "name": "state",
          "type": "uint8"
        }
      ],
      "stateMutability": "view",
      "type": "function"
    },
    {
      "inputs": [],
      "name": "studentERC20",
      "outputs": [
        {
          "internalType": "contract MyERC20",
          "name": "",
          "type": "address"
        }
      ],
      "stateMutability": "view",
      "type": "function"
    },
    {
      "inputs": [],
      "name": "studentERC721",
      "outputs": [
        {
          "internalType": "contract MyERC721",
          "name": "",
          "type": "address"
        }
      ],
      "stateMutability": "view",
      "type": "function"
    },
    {
      "inputs": [
        {
          "internalType": "uint32",
          "name": "index",
          "type": "uint32"
        },
        {
          "internalType": "uint32",
          "name": "amount",
          "type": "uint32"
        }
      ],
      "name": "supportProposal",
      "outputs": [],
      "stateMutability": "payable",
      "type": "function"
    },
    {
      "inputs": [],
      "name": "totalProposals",
      "outputs": [
        {
          "internalType": "uint32",
          "name": "",
          "type": "uint32"
        }
      ],
      "stateMutability": "view",
      "type": "function"
    },
    {
      "inputs": [
        {
          "internalType": "address",
          "name": "",
          "type": "address"
        }
      ],
      "name": "userPass",
      "outputs": [
        {
          "internalType": "uint32",
          "name": "",
          "type": "uint32"
        }
      ],
      "stateMutability": "view",
      "type": "function"
    },
    {
      "inputs": [
        {
          "internalType": "address",
          "name": "",
          "type": "address"
        }
      ],
      "name": "userProposals",
      "outputs": [
        {
          "internalType": "uint32",
          "name": "",
          "type": "uint32"
        }
      ],
      "stateMutability": "view",
      "type": "function"
    }
  ],
  "bytecode": "0x608060405260008060006101000a81548163ffffffff021916908363ffffffff1602179055503480156200003257600080fd5b50604051620000419062000127565b6200004c90620001f4565b604051809103906000f08015801562000069573d6000803e3d6000fd5b50600060046101000a81548173ffffffffffffffffffffffffffffffffffffffff021916908373ffffffffffffffffffffffffffffffffffffffff160217905550604051620000b89062000135565b620000c390620002cb565b604051809103906000f080158015620000e0573d6000803e3d6000fd5b50600160006101000a81548173ffffffffffffffffffffffffffffffffffffffff021916908373ffffffffffffffffffffffffffffffffffffffff16021790555062000302565b611cdb806200254283390190565b612f7b806200421d83390190565b600082825260208201905092915050565b7f53532d546f6b656e000000000000000000000000000000000000000000000000600082015250565b60006200018c60088362000143565b9150620001998262000154565b602082019050919050565b7f53532d546f6b656e2d53796d626f6c0000000000000000000000000000000000600082015250565b6000620001dc600f8362000143565b9150620001e982620001a4565b602082019050919050565b600060408201905081810360008301526200020f816200017d565b905081810360208301526200022481620001cd565b9050919050565b7f53532d536f7576696e6572000000000000000000000000000000000000000000600082015250565b600062000263600b8362000143565b915062000270826200022b565b602082019050919050565b7f53532d536f7576696e65722d53796d626f6c0000000000000000000000000000600082015250565b6000620002b360128362000143565b9150620002c0826200027b565b602082019050919050565b60006040820190508181036000830152620002e68162000254565b90508181036020830152620002fb81620002a4565b9050919050565b61223080620003126000396000f3fe6080604052600436106101c25760003560e01c806377a78097116100f7578063b55643e111610095578063c72fca9911610064578063c72fca99146106ce578063dfaeda44146106f9578063e3ce595514610736578063fe71b8ba14610773576101c2565b8063b55643e114610600578063b6523be31461063d578063bbe4fd5014610666578063c002f01a14610691576101c2565b8063a5f98cde116100d1578063a5f98cde14610542578063a78d80fc1461056d578063a7e8b85d14610598578063b362dbf6146105d5576101c2565b806377a78097146104ac57806378ef1138146104e95780639b91336614610526576101c2565b8063513c0b12116101645780636334975a1161013e5780636334975a146103de5780636c3fbb2d1461041b5780636f06865c146104465780636fab025a14610483576101c2565b8063513c0b121461034857806352a607e1146103645780635859e38e146103a1576101c2565b80632a4910ab116101a05780632a4910ab1461027e5780633901d2d4146102c457806341e4e720146102ef5780634fff8d421461030b576101c2565b8063117597b2146101c75780631436f9ba1461020457806322f07ea014610241575b600080fd5b3480156101d357600080fd5b506101ee60048036038101906101e991906118f1565b61079e565b6040516101fb9190611939565b60405180910390f35b34801561021057600080fd5b5061022b600480360381019061022691906118f1565b61081a565b6040516102389190611963565b60405180910390f35b34801561024d57600080fd5b50610268600480360381019061026391906119dc565b610856565b6040516102759190611963565b60405180910390f35b34801561028a57600080fd5b506102a560048036038101906102a091906118f1565b610879565b6040516102bb9a99989796959493929190611b41565b60405180910390f35b3480156102d057600080fd5b506102d9610ac2565b6040516102e69190611c51565b60405180910390f35b61030960048036038101906103049190611dcd565b610ae8565b005b34801561031757600080fd5b50610332600480360381019061032d91906118f1565b610eb8565b60405161033f9190611e88565b60405180910390f35b610362600480360381019061035d9190611eaa565b610f6c565b005b34801561037057600080fd5b5061038b600480360381019061038691906118f1565b6110c6565b6040516103989190611eea565b60405180910390f35b3480156103ad57600080fd5b506103c860048036038101906103c391906118f1565b6110ff565b6040516103d59190611f05565b60405180910390f35b3480156103ea57600080fd5b50610405600480360381019061040091906118f1565b61112b565b6040516104129190611f05565b60405180910390f35b34801561042757600080fd5b50610430611157565b60405161043d9190611f41565b60405180910390f35b34801561045257600080fd5b5061046d600480360381019061046891906118f1565b61117d565b60405161047a9190611939565b60405180910390f35b34801561048f57600080fd5b506104aa60048036038101906104a591906118f1565b6111d9565b005b3480156104b857600080fd5b506104d360048036038101906104ce91906119dc565b611227565b6040516104e09190611963565b60405180910390f35b3480156104f557600080fd5b50610510600480360381019061050b91906119dc565b611280565b60405161051d9190611963565b60405180910390f35b610540600480360381019061053b9190611eaa565b6112d9565b005b34801561054e57600080fd5b50610557611433565b6040516105649190611963565b60405180910390f35b34801561057957600080fd5b50610582611438565b60405161058f9190611963565b60405180910390f35b3480156105a457600080fd5b506105bf60048036038101906105ba91906118f1565b61144c565b6040516105cc9190611e88565b60405180910390f35b3480156105e157600080fd5b506105ea611500565b6040516105f79190611963565b60405180910390f35b34801561060c57600080fd5b50610627600480360381019061062291906119dc565b611505565b6040516106349190611963565b60405180910390f35b34801561064957600080fd5b50610664600480360381019061065f91906118f1565b611528565b005b34801561067257600080fd5b5061067b6116a3565b6040516106889190611f05565b60405180910390f35b34801561069d57600080fd5b506106b860048036038101906106b391906118f1565b6116ab565b6040516106c59190611963565b60405180910390f35b3480156106da57600080fd5b506106e36116e7565b6040516106f09190611963565b60405180910390f35b34801561070557600080fd5b50610720600480360381019061071b91906118f1565b6116ec565b60405161072d9190611f05565b60405180910390f35b34801561074257600080fd5b5061075d600480360381019061075891906118f1565b611745565b60405161076a9190611e88565b60405180910390f35b34801561077f57600080fd5b506107886117f9565b6040516107959190611963565b60405180910390f35b6000600260008363ffffffff1663ffffffff16815260200190815260200160002060060160049054906101000a900463ffffffff1663ffffffff16600260008463ffffffff1663ffffffff16815260200190815260200160002060060160009054906101000a900463ffffffff1663ffffffff16119050919050565b6000600260008363ffffffff1663ffffffff16815260200190815260200160002060060160009054906101000a900463ffffffff169050919050565b60046020528060005260406000206000915054906101000a900463ffffffff1681565b60026020528060005260406000206000915090508060000160009054906101000a900463ffffffff16908060000160049054906101000a900473ffffffffffffffffffffffffffffffffffffffff16908060010180546108d890611f8b565b80601f016020809104026020016040519081016040528092919081815260200182805461090490611f8b565b80156109515780601f1061092657610100808354040283529160200191610951565b820191906000526020600020905b81548152906001019060200180831161093457829003601f168201915b50505050509080600201805461096690611f8b565b80601f016020809104026020016040519081016040528092919081815260200182805461099290611f8b565b80156109df5780601f106109b4576101008083540402835291602001916109df565b820191906000526020600020905b8154815290600101906020018083116109c257829003601f168201915b505050505090806003015490806004015490806005018054610a0090611f8b565b80601f0160208091040260200160405190810160405280929190818152602001828054610a2c90611f8b565b8015610a795780601f10610a4e57610100808354040283529160200191610a79565b820191906000526020600020905b815481529060010190602001808311610a5c57829003601f168201915b5050505050908060060160009054906101000a900463ffffffff16908060060160049054906101000a900463ffffffff16908060060160089054906101000a900460ff1690508a565b600160009054906101000a900473ffffffffffffffffffffffffffffffffffffffff1681565b600060049054906101000a900473ffffffffffffffffffffffffffffffffffffffff1673ffffffffffffffffffffffffffffffffffffffff166323b872dd3330600a6040518463ffffffff1660e01b8152600401610b4893929190611fee565b602060405180830381600087803b158015610b6257600080fd5b505af1158015610b76573d6000803e3d6000fd5b505050506040513d601f19601f82011682018060405250810190610b9a9190612051565b50600060405180610140016040528060008054906101000a900463ffffffff1663ffffffff1681526020013373ffffffffffffffffffffffffffffffffffffffff168152602001868152602001858152602001428152602001848152602001838152602001600063ffffffff168152602001600063ffffffff16815260200160016002811115610c2d57610c2c611aca565b5b815250905080600260008060009054906101000a900463ffffffff1663ffffffff1663ffffffff16815260200190815260200160002060008201518160000160006101000a81548163ffffffff021916908363ffffffff16021790555060208201518160000160046101000a81548173ffffffffffffffffffffffffffffffffffffffff021916908373ffffffffffffffffffffffffffffffffffffffff1602179055506040820151816001019080519060200190610ced9291906117fe565b506060820151816002019080519060200190610d0a9291906117fe565b506080820151816003015560a0820151816004015560c0820151816005019080519060200190610d3b9291906117fe565b5060e08201518160060160006101000a81548163ffffffff021916908363ffffffff1602179055506101008201518160060160046101000a81548163ffffffff021916908363ffffffff1602179055506101208201518160060160086101000a81548160ff02191690836002811115610db757610db6611aca565b5b02179055509050506001600360003373ffffffffffffffffffffffffffffffffffffffff1673ffffffffffffffffffffffffffffffffffffffff16815260200190815260200160002060008282829054906101000a900463ffffffff16610e1e91906120ad565b92506101000a81548163ffffffff021916908363ffffffff1602179055507f944f5ef0a446d54c41ea39dac07de1fd2150ec3346cbff6c627d1ffba048676c60008081819054906101000a900463ffffffff1680929190610e7e906120e7565b91906101000a81548163ffffffff021916908363ffffffff160217905550604051610ea99190611963565b60405180910390a15050505050565b6060600260008363ffffffff1663ffffffff1681526020019081526020016000206002018054610ee790611f8b565b80601f0160208091040260200160405190810160405280929190818152602001828054610f1390611f8b565b8015610f605780601f10610f3557610100808354040283529160200191610f60565b820191906000526020600020905b815481529060010190602001808311610f4357829003601f168201915b50505050509050919050565b600060049054906101000a900473ffffffffffffffffffffffffffffffffffffffff1673ffffffffffffffffffffffffffffffffffffffff166323b872dd3330600285610fb99190612114565b6040518463ffffffff1660e01b8152600401610fd793929190611fee565b602060405180830381600087803b158015610ff157600080fd5b505af1158015611005573d6000803e3d6000fd5b505050506040513d601f19601f820116820180604052508101906110299190612051565b5080600260008463ffffffff1663ffffffff16815260200190815260200160002060060160008282829054906101000a900463ffffffff1661106b91906120ad565b92506101000a81548163ffffffff021916908363ffffffff1602179055507f34fe2cf2cdfbcba83ad340bc61db1a72f9e39b9cc24ba2692fbb78aacf61d9b682826040516110ba929190612152565b60405180910390a15050565b6000600260008363ffffffff1663ffffffff16815260200190815260200160002060060160089054906101000a900460ff169050919050565b6000600260008363ffffffff1663ffffffff168152602001908152602001600020600301549050919050565b6000600260008363ffffffff1663ffffffff168152602001908152602001600020600401549050919050565b600060049054906101000a900473ffffffffffffffffffffffffffffffffffffffff1681565b600042600260008463ffffffff1663ffffffff16815260200190815260200160002060040154600260008563ffffffff1663ffffffff168152602001908152602001600020600301546111d0919061217b565b11159050919050565b6000600260008363ffffffff1663ffffffff16815260200190815260200160002060060160086101000a81548160ff0219169083600281111561121f5761121e611aca565b5b021790555050565b6000600460008373ffffffffffffffffffffffffffffffffffffffff1673ffffffffffffffffffffffffffffffffffffffff16815260200190815260200160002060009054906101000a900463ffffffff169050919050565b6000600360008373ffffffffffffffffffffffffffffffffffffffff1673ffffffffffffffffffffffffffffffffffffffff16815260200190815260200160002060009054906101000a900463ffffffff169050919050565b600060049054906101000a900473ffffffffffffffffffffffffffffffffffffffff1673ffffffffffffffffffffffffffffffffffffffff166323b872dd33306002856113269190612114565b6040518463ffffffff1660e01b815260040161134493929190611fee565b602060405180830381600087803b15801561135e57600080fd5b505af1158015611372573d6000803e3d6000fd5b505050506040513d601f19601f820116820180604052508101906113969190612051565b5080600260008463ffffffff1663ffffffff16815260200190815260200160002060060160048282829054906101000a900463ffffffff166113d891906120ad565b92506101000a81548163ffffffff021916908363ffffffff1602179055507f1328210dc136d6d0c1ad4a507f31c37d9746d5de9e37d2e4eb3e95a163555edb8282604051611427929190612152565b60405180910390a15050565b606481565b60008054906101000a900463ffffffff1681565b6060600260008363ffffffff1663ffffffff168152602001908152602001600020600501805461147b90611f8b565b80601f01602080910402602001604051908101604052809291908181526020018280546114a790611f8b565b80156114f45780601f106114c9576101008083540402835291602001916114f4565b820191906000526020600020905b8154815290600101906020018083116114d757829003601f168201915b50505050509050919050565b600a81565b60036020528060005260406000206000915054906101000a900463ffffffff1681565b60028060008363ffffffff1663ffffffff16815260200190815260200160002060060160086101000a81548160ff0219169083600281111561156d5761156c611aca565b5b02179055506001600460003373ffffffffffffffffffffffffffffffffffffffff1673ffffffffffffffffffffffffffffffffffffffff16815260200190815260200160002060008282829054906101000a900463ffffffff166115d191906120ad565b92506101000a81548163ffffffff021916908363ffffffff160217905550600060049054906101000a900473ffffffffffffffffffffffffffffffffffffffff1673ffffffffffffffffffffffffffffffffffffffff1663a9059cbb3360196040518363ffffffff1660e01b815260040161164d9291906121d1565b602060405180830381600087803b15801561166757600080fd5b505af115801561167b573d6000803e3d6000fd5b505050506040513d601f19601f8201168201806040525081019061169f9190612051565b5050565b600042905090565b6000600260008363ffffffff1663ffffffff16815260200190815260200160002060060160049054906101000a900463ffffffff169050919050565b601981565b6000600260008363ffffffff1663ffffffff16815260200190815260200160002060040154600260008463ffffffff1663ffffffff1681526020019081526020016000206003015461173e919061217b565b9050919050565b6060600260008363ffffffff1663ffffffff168152602001908152602001600020600101805461177490611f8b565b80601f01602080910402602001604051908101604052809291908181526020018280546117a090611f8b565b80156117ed5780601f106117c2576101008083540402835291602001916117ed565b820191906000526020600020905b8154815290600101906020018083116117d057829003601f168201915b50505050509050919050565b600281565b82805461180a90611f8b565b90600052602060002090601f01602090048101928261182c5760008555611873565b82601f1061184557805160ff1916838001178555611873565b82800160010185558215611873579182015b82811115611872578251825591602001919060010190611857565b5b5090506118809190611884565b5090565b5b8082111561189d576000816000905550600101611885565b5090565b6000604051905090565b600080fd5b600080fd5b600063ffffffff82169050919050565b6118ce816118b5565b81146118d957600080fd5b50565b6000813590506118eb816118c5565b92915050565b600060208284031215611907576119066118ab565b5b6000611915848285016118dc565b91505092915050565b60008115159050919050565b6119338161191e565b82525050565b600060208201905061194e600083018461192a565b92915050565b61195d816118b5565b82525050565b60006020820190506119786000830184611954565b92915050565b600073ffffffffffffffffffffffffffffffffffffffff82169050919050565b60006119a98261197e565b9050919050565b6119b98161199e565b81146119c457600080fd5b50565b6000813590506119d6816119b0565b92915050565b6000602082840312156119f2576119f16118ab565b5b6000611a00848285016119c7565b91505092915050565b611a128161199e565b82525050565b600081519050919050565b600082825260208201905092915050565b60005b83811015611a52578082015181840152602081019050611a37565b83811115611a61576000848401525b50505050565b6000601f19601f8301169050919050565b6000611a8382611a18565b611a8d8185611a23565b9350611a9d818560208601611a34565b611aa681611a67565b840191505092915050565b6000819050919050565b611ac481611ab1565b82525050565b7f4e487b7100000000000000000000000000000000000000000000000000000000600052602160045260246000fd5b60038110611b0a57611b09611aca565b5b50565b6000819050611b1b82611af9565b919050565b6000611b2b82611b0d565b9050919050565b611b3b81611b20565b82525050565b600061014082019050611b57600083018d611954565b611b64602083018c611a09565b8181036040830152611b76818b611a78565b90508181036060830152611b8a818a611a78565b9050611b996080830189611abb565b611ba660a0830188611abb565b81810360c0830152611bb88187611a78565b9050611bc760e0830186611954565b611bd5610100830185611954565b611be3610120830184611b32565b9b9a5050505050505050505050565b6000819050919050565b6000611c17611c12611c0d8461197e565b611bf2565b61197e565b9050919050565b6000611c2982611bfc565b9050919050565b6000611c3b82611c1e565b9050919050565b611c4b81611c30565b82525050565b6000602082019050611c666000830184611c42565b92915050565b600080fd5b600080fd5b7f4e487b7100000000000000000000000000000000000000000000000000000000600052604160045260246000fd5b611cae82611a67565b810181811067ffffffffffffffff82111715611ccd57611ccc611c76565b5b80604052505050565b6000611ce06118a1565b9050611cec8282611ca5565b919050565b600067ffffffffffffffff821115611d0c57611d0b611c76565b5b611d1582611a67565b9050602081019050919050565b82818337600083830152505050565b6000611d44611d3f84611cf1565b611cd6565b905082815260208101848484011115611d6057611d5f611c71565b5b611d6b848285611d22565b509392505050565b600082601f830112611d8857611d87611c6c565b5b8135611d98848260208601611d31565b91505092915050565b611daa81611ab1565b8114611db557600080fd5b50565b600081359050611dc781611da1565b92915050565b60008060008060808587031215611de757611de66118ab565b5b600085013567ffffffffffffffff811115611e0557611e046118b0565b5b611e1187828801611d73565b945050602085013567ffffffffffffffff811115611e3257611e316118b0565b5b611e3e87828801611d73565b9350506040611e4f87828801611db8565b925050606085013567ffffffffffffffff811115611e7057611e6f6118b0565b5b611e7c87828801611d73565b91505092959194509250565b60006020820190508181036000830152611ea28184611a78565b905092915050565b60008060408385031215611ec157611ec06118ab565b5b6000611ecf858286016118dc565b9250506020611ee0858286016118dc565b9150509250929050565b6000602082019050611eff6000830184611b32565b92915050565b6000602082019050611f1a6000830184611abb565b92915050565b6000611f2b82611c1e565b9050919050565b611f3b81611f20565b82525050565b6000602082019050611f566000830184611f32565b92915050565b7f4e487b7100000000000000000000000000000000000000000000000000000000600052602260045260246000fd5b60006002820490506001821680611fa357607f821691505b60208210811415611fb757611fb6611f5c565b5b50919050565b6000611fd8611fd3611fce846118b5565b611bf2565b611ab1565b9050919050565b611fe881611fbd565b82525050565b60006060820190506120036000830186611a09565b6120106020830185611a09565b61201d6040830184611fdf565b949350505050565b61202e8161191e565b811461203957600080fd5b50565b60008151905061204b81612025565b92915050565b600060208284031215612067576120666118ab565b5b60006120758482850161203c565b91505092915050565b7f4e487b7100000000000000000000000000000000000000000000000000000000600052601160045260246000fd5b60006120b8826118b5565b91506120c3836118b5565b92508263ffffffff038211156120dc576120db61207e565b5b828201905092915050565b60006120f2826118b5565b915063ffffffff8214156121095761210861207e565b5b600182019050919050565b600061211f826118b5565b915061212a836118b5565b92508163ffffffff04831182151516156121475761214661207e565b5b828202905092915050565b60006040820190506121676000830185611954565b6121746020830184611954565b9392505050565b600061218682611ab1565b915061219183611ab1565b9250827fffffffffffffffffffffffffffffffffffffffffffffffffffffffffffffffff038211156121c6576121c561207e565b5b828201905092915050565b60006040820190506121e66000830185611a09565b6121f36020830184611fdf565b939250505056fea2646970667358221220d18d03ec18ffba8ed7a4a9fe4157cb10594d4feab22b6d8f6a85c5aaa5cdb41b64736f6c6343000809003360806040523480156200001157600080fd5b5060405162001cdb38038062001cdb833981810160405281019062000037919062000459565b81818160039080519060200190620000519291906200020c565b5080600490805190602001906200006a9291906200020c565b50505062000081336127106200008960201b60201c565b50506200068a565b600073ffffffffffffffffffffffffffffffffffffffff168273ffffffffffffffffffffffffffffffffffffffff161415620000fc576040517f08c379a0000000000000000000000000000000000000000000000000000000008152600401620000f3906200053f565b60405180910390fd5b62000110600083836200020260201b60201c565b80600260008282546200012491906200059a565b92505081905550806000808473ffffffffffffffffffffffffffffffffffffffff1673ffffffffffffffffffffffffffffffffffffffff16815260200190815260200160002060008282546200017b91906200059a565b925050819055508173ffffffffffffffffffffffffffffffffffffffff16600073ffffffffffffffffffffffffffffffffffffffff167fddf252ad1be2c89b69c2b068fc378daa952ba7f163c4a11628f55a4df523b3ef83604051620001e2919062000608565b60405180910390a3620001fe600083836200020760201b60201c565b5050565b505050565b505050565b8280546200021a9062000654565b90600052602060002090601f0160209004810192826200023e57600085556200028a565b82601f106200025957805160ff19168380011785556200028a565b828001600101855582156200028a579182015b82811115620002895782518255916020019190600101906200026c565b5b5090506200029991906200029d565b5090565b5b80821115620002b85760008160009055506001016200029e565b5090565b6000604051905090565b600080fd5b600080fd5b600080fd5b600080fd5b6000601f19601f8301169050919050565b7f4e487b7100000000000000000000000000000000000000000000000000000000600052604160045260246000fd5b6200032582620002da565b810181811067ffffffffffffffff82111715620003475762000346620002eb565b5b80604052505050565b60006200035c620002bc565b90506200036a82826200031a565b919050565b600067ffffffffffffffff8211156200038d576200038c620002eb565b5b6200039882620002da565b9050602081019050919050565b60005b83811015620003c5578082015181840152602081019050620003a8565b83811115620003d5576000848401525b50505050565b6000620003f2620003ec846200036f565b62000350565b905082815260208101848484011115620004115762000410620002d5565b5b6200041e848285620003a5565b509392505050565b600082601f8301126200043e576200043d620002d0565b5b815162000450848260208601620003db565b91505092915050565b60008060408385031215620004735762000472620002c6565b5b600083015167ffffffffffffffff811115620004945762000493620002cb565b5b620004a28582860162000426565b925050602083015167ffffffffffffffff811115620004c657620004c5620002cb565b5b620004d48582860162000426565b9150509250929050565b600082825260208201905092915050565b7f45524332303a206d696e7420746f20746865207a65726f206164647265737300600082015250565b600062000527601f83620004de565b91506200053482620004ef565b602082019050919050565b600060208201905081810360008301526200055a8162000518565b9050919050565b6000819050919050565b7f4e487b7100000000000000000000000000000000000000000000000000000000600052601160045260246000fd5b6000620005a78262000561565b9150620005b48362000561565b9250827fffffffffffffffffffffffffffffffffffffffffffffffffffffffffffffffff03821115620005ec57620005eb6200056b565b5b828201905092915050565b620006028162000561565b82525050565b60006020820190506200061f6000830184620005f7565b92915050565b7f4e487b7100000000000000000000000000000000000000000000000000000000600052602260045260246000fd5b600060028204905060018216806200066d57607f821691505b6020821081141562000684576200068362000625565b5b50919050565b611641806200069a6000396000f3fe608060405234801561001057600080fd5b50600436106100cf5760003560e01c8063395093511161008c57806395d89b411161006657806395d89b4114610216578063a457c2d714610234578063a9059cbb14610264578063dd62ed3e14610294576100cf565b8063395093511461019857806357c9ca14146101c857806370a08231146101e6576100cf565b806304d092c7146100d457806306fdde03146100de578063095ea7b3146100fc57806318160ddd1461012c57806323b872dd1461014a578063313ce5671461017a575b600080fd5b6100dc6102c4565b005b6100e66103c3565b6040516100f39190610e23565b60405180910390f35b61011660048036038101906101119190610ede565b610455565b6040516101239190610f39565b60405180910390f35b610134610478565b6040516101419190610f63565b60405180910390f35b610164600480360381019061015f9190610f7e565b610482565b6040516101719190610f39565b60405180910390f35b6101826104b1565b60405161018f9190610fed565b60405180910390f35b6101b260048036038101906101ad9190610ede565b6104ba565b6040516101bf9190610f39565b60405180910390f35b6101d06104f1565b6040516101dd9190610f39565b60405180910390f35b61020060048036038101906101fb9190611008565b610545565b60405161020d9190610f63565b60405180910390f35b61021e61058d565b60405161022b9190610e23565b60405180910390f35b61024e60048036038101906102499190610ede565b61061f565b60405161025b9190610f39565b60405180910390f35b61027e60048036038101906102799190610ede565b610696565b60405161028b9190610f39565b60405180910390f35b6102ae60048036038101906102a99190611035565b6106b9565b6040516102bb9190610f63565b60405180910390f35b60011515600560003373ffffffffffffffffffffffffffffffffffffffff1673ffffffffffffffffffffffffffffffffffffffff16815260200190815260200160002060009054906101000a900460ff1615151415610358576040517f08c379a000000000000000000000000000000000000000000000000000000000815260040161034f906110c1565b60405180910390fd5b61036933606463ffffffff16610740565b6001600560003373ffffffffffffffffffffffffffffffffffffffff1673ffffffffffffffffffffffffffffffffffffffff16815260200190815260200160002060006101000a81548160ff021916908315150217905550565b6060600380546103d290611110565b80601f01602080910402602001604051908101604052809291908181526020018280546103fe90611110565b801561044b5780601f106104205761010080835404028352916020019161044b565b820191906000526020600020905b81548152906001019060200180831161042e57829003601f168201915b5050505050905090565b6000806104606108a0565b905061046d8185856108a8565b600191505092915050565b6000600254905090565b60008061048d6108a0565b905061049a858285610a73565b6104a5858585610aff565b60019150509392505050565b60006012905090565b6000806104c56108a0565b90506104e68185856104d785896106b9565b6104e19190611171565b6108a8565b600191505092915050565b6000600560003373ffffffffffffffffffffffffffffffffffffffff1673ffffffffffffffffffffffffffffffffffffffff16815260200190815260200160002060009054906101000a900460ff16905090565b60008060008373ffffffffffffffffffffffffffffffffffffffff1673ffffffffffffffffffffffffffffffffffffffff168152602001908152602001600020549050919050565b60606004805461059c90611110565b80601f01602080910402602001604051908101604052809291908181526020018280546105c890611110565b80156106155780601f106105ea57610100808354040283529160200191610615565b820191906000526020600020905b8154815290600101906020018083116105f857829003601f168201915b5050505050905090565b60008061062a6108a0565b9050600061063882866106b9565b90508381101561067d576040517f08c379a000000000000000000000000000000000000000000000000000000000815260040161067490611239565b60405180910390fd5b61068a82868684036108a8565b60019250505092915050565b6000806106a16108a0565b90506106ae818585610aff565b600191505092915050565b6000600160008473ffffffffffffffffffffffffffffffffffffffff1673ffffffffffffffffffffffffffffffffffffffff16815260200190815260200160002060008373ffffffffffffffffffffffffffffffffffffffff1673ffffffffffffffffffffffffffffffffffffffff16815260200190815260200160002054905092915050565b600073ffffffffffffffffffffffffffffffffffffffff168273ffffffffffffffffffffffffffffffffffffffff1614156107b0576040517f08c379a00000000000000000000000000000000000000000000000000000000081526004016107a7906112a5565b60405180910390fd5b6107bc60008383610d80565b80600260008282546107ce9190611171565b92505081905550806000808473ffffffffffffffffffffffffffffffffffffffff1673ffffffffffffffffffffffffffffffffffffffff16815260200190815260200160002060008282546108239190611171565b925050819055508173ffffffffffffffffffffffffffffffffffffffff16600073ffffffffffffffffffffffffffffffffffffffff167fddf252ad1be2c89b69c2b068fc378daa952ba7f163c4a11628f55a4df523b3ef836040516108889190610f63565b60405180910390a361089c60008383610d85565b5050565b600033905090565b600073ffffffffffffffffffffffffffffffffffffffff168373ffffffffffffffffffffffffffffffffffffffff161415610918576040517f08c379a000000000000000000000000000000000000000000000000000000000815260040161090f90611337565b60405180910390fd5b600073ffffffffffffffffffffffffffffffffffffffff168273ffffffffffffffffffffffffffffffffffffffff161415610988576040517f08c379a000000000000000000000000000000000000000000000000000000000815260040161097f906113c9565b60405180910390fd5b80600160008573ffffffffffffffffffffffffffffffffffffffff1673ffffffffffffffffffffffffffffffffffffffff16815260200190815260200160002060008473ffffffffffffffffffffffffffffffffffffffff1673ffffffffffffffffffffffffffffffffffffffff168152602001908152602001600020819055508173ffffffffffffffffffffffffffffffffffffffff168373ffffffffffffffffffffffffffffffffffffffff167f8c5be1e5ebec7d5bd14f71427d1e84f3dd0314c0f7b2291e5b200ac8c7c3b92583604051610a669190610f63565b60405180910390a3505050565b6000610a7f84846106b9565b90507fffffffffffffffffffffffffffffffffffffffffffffffffffffffffffffffff8114610af95781811015610aeb576040517f08c379a0000000000000000000000000000000000000000000000000000000008152600401610ae290611435565b60405180910390fd5b610af884848484036108a8565b5b50505050565b600073ffffffffffffffffffffffffffffffffffffffff168373ffffffffffffffffffffffffffffffffffffffff161415610b6f576040517f08c379a0000000000000000000000000000000000000000000000000000000008152600401610b66906114c7565b60405180910390fd5b600073ffffffffffffffffffffffffffffffffffffffff168273ffffffffffffffffffffffffffffffffffffffff161415610bdf576040517f08c379a0000000000000000000000000000000000000000000000000000000008152600401610bd690611559565b60405180910390fd5b610bea838383610d80565b60008060008573ffffffffffffffffffffffffffffffffffffffff1673ffffffffffffffffffffffffffffffffffffffff16815260200190815260200160002054905081811015610c70576040517f08c379a0000000000000000000000000000000000000000000000000000000008152600401610c67906115eb565b60405180910390fd5b8181036000808673ffffffffffffffffffffffffffffffffffffffff1673ffffffffffffffffffffffffffffffffffffffff16815260200190815260200160002081905550816000808573ffffffffffffffffffffffffffffffffffffffff1673ffffffffffffffffffffffffffffffffffffffff1681526020019081526020016000206000828254610d039190611171565b925050819055508273ffffffffffffffffffffffffffffffffffffffff168473ffffffffffffffffffffffffffffffffffffffff167fddf252ad1be2c89b69c2b068fc378daa952ba7f163c4a11628f55a4df523b3ef84604051610d679190610f63565b60405180910390a3610d7a848484610d85565b50505050565b505050565b505050565b600081519050919050565b600082825260208201905092915050565b60005b83811015610dc4578082015181840152602081019050610da9565b83811115610dd3576000848401525b50505050565b6000601f19601f8301169050919050565b6000610df582610d8a565b610dff8185610d95565b9350610e0f818560208601610da6565b610e1881610dd9565b840191505092915050565b60006020820190508181036000830152610e3d8184610dea565b905092915050565b600080fd5b600073ffffffffffffffffffffffffffffffffffffffff82169050919050565b6000610e7582610e4a565b9050919050565b610e8581610e6a565b8114610e9057600080fd5b50565b600081359050610ea281610e7c565b92915050565b6000819050919050565b610ebb81610ea8565b8114610ec657600080fd5b50565b600081359050610ed881610eb2565b92915050565b60008060408385031215610ef557610ef4610e45565b5b6000610f0385828601610e93565b9250506020610f1485828601610ec9565b9150509250929050565b60008115159050919050565b610f3381610f1e565b82525050565b6000602082019050610f4e6000830184610f2a565b92915050565b610f5d81610ea8565b82525050565b6000602082019050610f786000830184610f54565b92915050565b600080600060608486031215610f9757610f96610e45565b5b6000610fa586828701610e93565b9350506020610fb686828701610e93565b9250506040610fc786828701610ec9565b9150509250925092565b600060ff82169050919050565b610fe781610fd1565b82525050565b60006020820190506110026000830184610fde565b92915050565b60006020828403121561101e5761101d610e45565b5b600061102c84828501610e93565b91505092915050565b6000806040838503121561104c5761104b610e45565b5b600061105a85828601610e93565b925050602061106b85828601610e93565b9150509250929050565b7f596f752063616e6e6f7420636c61696d20706f696e7473210000000000000000600082015250565b60006110ab601883610d95565b91506110b682611075565b602082019050919050565b600060208201905081810360008301526110da8161109e565b9050919050565b7f4e487b7100000000000000000000000000000000000000000000000000000000600052602260045260246000fd5b6000600282049050600182168061112857607f821691505b6020821081141561113c5761113b6110e1565b5b50919050565b7f4e487b7100000000000000000000000000000000000000000000000000000000600052601160045260246000fd5b600061117c82610ea8565b915061118783610ea8565b9250827fffffffffffffffffffffffffffffffffffffffffffffffffffffffffffffffff038211156111bc576111bb611142565b5b828201905092915050565b7f45524332303a2064656372656173656420616c6c6f77616e63652062656c6f7760008201527f207a65726f000000000000000000000000000000000000000000000000000000602082015250565b6000611223602583610d95565b915061122e826111c7565b604082019050919050565b6000602082019050818103600083015261125281611216565b9050919050565b7f45524332303a206d696e7420746f20746865207a65726f206164647265737300600082015250565b600061128f601f83610d95565b915061129a82611259565b602082019050919050565b600060208201905081810360008301526112be81611282565b9050919050565b7f45524332303a20617070726f76652066726f6d20746865207a65726f2061646460008201527f7265737300000000000000000000000000000000000000000000000000000000602082015250565b6000611321602483610d95565b915061132c826112c5565b604082019050919050565b6000602082019050818103600083015261135081611314565b9050919050565b7f45524332303a20617070726f766520746f20746865207a65726f20616464726560008201527f7373000000000000000000000000000000000000000000000000000000000000602082015250565b60006113b3602283610d95565b91506113be82611357565b604082019050919050565b600060208201905081810360008301526113e2816113a6565b9050919050565b7f45524332303a20696e73756666696369656e7420616c6c6f77616e6365000000600082015250565b600061141f601d83610d95565b915061142a826113e9565b602082019050919050565b6000602082019050818103600083015261144e81611412565b9050919050565b7f45524332303a207472616e736665722066726f6d20746865207a65726f20616460008201527f6472657373000000000000000000000000000000000000000000000000000000602082015250565b60006114b1602583610d95565b91506114bc82611455565b604082019050919050565b600060208201905081810360008301526114e0816114a4565b9050919050565b7f45524332303a207472616e7366657220746f20746865207a65726f206164647260008201527f6573730000000000000000000000000000000000000000000000000000000000602082015250565b6000611543602383610d95565b915061154e826114e7565b604082019050919050565b6000602082019050818103600083015261157281611536565b9050919050565b7f45524332303a207472616e7366657220616d6f756e742065786365656473206260008201527f616c616e63650000000000000000000000000000000000000000000000000000602082015250565b60006115d5602683610d95565b91506115e082611579565b604082019050919050565b60006020820190508181036000830152611604816115c8565b905091905056fea2646970667358221220f40643bb852265be57728f1b35e6368ac7221da4945e418836dce5e3a3efe96764736f6c6343000809003360806040523480156200001157600080fd5b5060405162002f7b38038062002f7b833981810160405281019062000037919062000545565b8181816000908051906020019062000051929190620002f8565b5080600190805190602001906200006a929190620002f8565b505050620000803360646200008860201b60201c565b5050620007ba565b600073ffffffffffffffffffffffffffffffffffffffff168273ffffffffffffffffffffffffffffffffffffffff161415620000fb576040517f08c379a0000000000000000000000000000000000000000000000000000000008152600401620000f2906200062b565b60405180910390fd5b6200010c816200028260201b60201c565b156200014f576040517f08c379a000000000000000000000000000000000000000000000000000000000815260040162000146906200069d565b60405180910390fd5b6200016360008383620002ee60201b60201c565b6001600360008473ffffffffffffffffffffffffffffffffffffffff1673ffffffffffffffffffffffffffffffffffffffff1681526020019081526020016000206000828254620001b59190620006f8565b92505081905550816002600083815260200190815260200160002060006101000a81548173ffffffffffffffffffffffffffffffffffffffff021916908373ffffffffffffffffffffffffffffffffffffffff160217905550808273ffffffffffffffffffffffffffffffffffffffff16600073ffffffffffffffffffffffffffffffffffffffff167fddf252ad1be2c89b69c2b068fc378daa952ba7f163c4a11628f55a4df523b3ef60405160405180910390a46200027e60008383620002f360201b60201c565b5050565b60008073ffffffffffffffffffffffffffffffffffffffff166002600084815260200190815260200160002060009054906101000a900473ffffffffffffffffffffffffffffffffffffffff1673ffffffffffffffffffffffffffffffffffffffff1614159050919050565b505050565b505050565b828054620003069062000784565b90600052602060002090601f0160209004810192826200032a576000855562000376565b82601f106200034557805160ff191683800117855562000376565b8280016001018555821562000376579182015b828111156200037557825182559160200191906001019062000358565b5b50905062000385919062000389565b5090565b5b80821115620003a45760008160009055506001016200038a565b5090565b6000604051905090565b600080fd5b600080fd5b600080fd5b600080fd5b6000601f19601f8301169050919050565b7f4e487b7100000000000000000000000000000000000000000000000000000000600052604160045260246000fd5b6200041182620003c6565b810181811067ffffffffffffffff82111715620004335762000432620003d7565b5b80604052505050565b600062000448620003a8565b905062000456828262000406565b919050565b600067ffffffffffffffff821115620004795762000478620003d7565b5b6200048482620003c6565b9050602081019050919050565b60005b83811015620004b157808201518184015260208101905062000494565b83811115620004c1576000848401525b50505050565b6000620004de620004d8846200045b565b6200043c565b905082815260208101848484011115620004fd57620004fc620003c1565b5b6200050a84828562000491565b509392505050565b600082601f8301126200052a5762000529620003bc565b5b81516200053c848260208601620004c7565b91505092915050565b600080604083850312156200055f576200055e620003b2565b5b600083015167ffffffffffffffff81111562000580576200057f620003b7565b5b6200058e8582860162000512565b925050602083015167ffffffffffffffff811115620005b257620005b1620003b7565b5b620005c08582860162000512565b9150509250929050565b600082825260208201905092915050565b7f4552433732313a206d696e7420746f20746865207a65726f2061646472657373600082015250565b600062000613602083620005ca565b91506200062082620005db565b602082019050919050565b60006020820190508181036000830152620006468162000604565b9050919050565b7f4552433732313a20746f6b656e20616c7265616479206d696e74656400000000600082015250565b600062000685601c83620005ca565b915062000692826200064d565b602082019050919050565b60006020820190508181036000830152620006b88162000676565b9050919050565b6000819050919050565b7f4e487b7100000000000000000000000000000000000000000000000000000000600052601160045260246000fd5b60006200070582620006bf565b91506200071283620006bf565b9250827fffffffffffffffffffffffffffffffffffffffffffffffffffffffffffffffff038211156200074a5762000749620006c9565b5b828201905092915050565b7f4e487b7100000000000000000000000000000000000000000000000000000000600052602260045260246000fd5b600060028204905060018216806200079d57607f821691505b60208210811415620007b457620007b362000755565b5b50919050565b6127b180620007ca6000396000f3fe608060405234801561001057600080fd5b50600436106101005760003560e01c806370a0823111610097578063b88d4fde11610066578063b88d4fde146102bd578063c2a22faa146102d9578063c87b56dd146102f5578063e985e9c51461032557610100565b806370a08231146102235780638e0ae11b1461025357806395d89b4114610283578063a22cb465146102a157610100565b80631bbf2bf3116100d35780631bbf2bf31461019f57806323b872dd146101bb57806342842e0e146101d75780636352211e146101f357610100565b806301ffc9a71461010557806306fdde0314610135578063081812fc14610153578063095ea7b314610183575b600080fd5b61011f600480360381019061011a91906118a4565b610355565b60405161012c91906118ec565b60405180910390f35b61013d610437565b60405161014a91906119a0565b60405180910390f35b61016d600480360381019061016891906119f8565b6104c9565b60405161017a9190611a66565b60405180910390f35b61019d60048036038101906101989190611aad565b61050f565b005b6101b960048036038101906101b49190611aed565b610627565b005b6101d560048036038101906101d09190611b1a565b61077d565b005b6101f160048036038101906101ec9190611b1a565b6107dd565b005b61020d600480360381019061020891906119f8565b6107fd565b60405161021a9190611a66565b60405180910390f35b61023d60048036038101906102389190611aed565b6108af565b60405161024a9190611b7c565b60405180910390f35b61026d60048036038101906102689190611aed565b610967565b60405161027a91906118ec565b60405180910390f35b61028b610a1a565b60405161029891906119a0565b60405180910390f35b6102bb60048036038101906102b69190611bc3565b610aac565b005b6102d760048036038101906102d29190611d38565b610ac2565b005b6102f360048036038101906102ee9190611aed565b610b24565b005b61030f600480360381019061030a91906119f8565b610b7f565b60405161031c91906119a0565b60405180910390f35b61033f600480360381019061033a9190611dbb565b610be7565b60405161034c91906118ec565b60405180910390f35b60007f80ac58cd000000000000000000000000000000000000000000000000000000007bffffffffffffffffffffffffffffffffffffffffffffffffffffffff1916827bffffffffffffffffffffffffffffffffffffffffffffffffffffffff1916148061042057507f5b5e139f000000000000000000000000000000000000000000000000000000007bffffffffffffffffffffffffffffffffffffffffffffffffffffffff1916827bffffffffffffffffffffffffffffffffffffffffffffffffffffffff1916145b80610430575061042f82610c7b565b5b9050919050565b60606000805461044690611e2a565b80601f016020809104026020016040519081016040528092919081815260200182805461047290611e2a565b80156104bf5780601f10610494576101008083540402835291602001916104bf565b820191906000526020600020905b8154815290600101906020018083116104a257829003601f168201915b5050505050905090565b60006104d482610ce5565b6004600083815260200190815260200160002060009054906101000a900473ffffffffffffffffffffffffffffffffffffffff169050919050565b600061051a826107fd565b90508073ffffffffffffffffffffffffffffffffffffffff168373ffffffffffffffffffffffffffffffffffffffff16141561058b576040517f08c379a000000000000000000000000000000000000000000000000000000000815260040161058290611ece565b60405180910390fd5b8073ffffffffffffffffffffffffffffffffffffffff166105aa610d30565b73ffffffffffffffffffffffffffffffffffffffff1614806105d957506105d8816105d3610d30565b610be7565b5b610618576040517f08c379a000000000000000000000000000000000000000000000000000000000815260040161060f90611f60565b60405180910390fd5b6106228383610d38565b505050565b60011515600660008373ffffffffffffffffffffffffffffffffffffffff1673ffffffffffffffffffffffffffffffffffffffff16815260200190815260200160002060009054906101000a900460ff1615151480156106d8575060011515600760008373ffffffffffffffffffffffffffffffffffffffff1673ffffffffffffffffffffffffffffffffffffffff16815260200190815260200160002060009054906101000a900460ff16151514155b610717576040517f08c379a000000000000000000000000000000000000000000000000000000000815260040161070e90611fcc565b60405180910390fd5b610722816001610df1565b6001600760008373ffffffffffffffffffffffffffffffffffffffff1673ffffffffffffffffffffffffffffffffffffffff16815260200190815260200160002060006101000a81548160ff02191690831515021790555050565b61078e610788610d30565b82610fcb565b6107cd576040517f08c379a00000000000000000000000000000000000000000000000000000000081526004016107c49061205e565b60405180910390fd5b6107d8838383611060565b505050565b6107f883838360405180602001604052806000815250610ac2565b505050565b6000806002600084815260200190815260200160002060009054906101000a900473ffffffffffffffffffffffffffffffffffffffff169050600073ffffffffffffffffffffffffffffffffffffffff168173ffffffffffffffffffffffffffffffffffffffff1614156108a6576040517f08c379a000000000000000000000000000000000000000000000000000000000815260040161089d906120ca565b60405180910390fd5b80915050919050565b60008073ffffffffffffffffffffffffffffffffffffffff168273ffffffffffffffffffffffffffffffffffffffff161415610920576040517f08c379a00000000000000000000000000000000000000000000000000000000081526004016109179061215c565b60405180910390fd5b600360008373ffffffffffffffffffffffffffffffffffffffff1673ffffffffffffffffffffffffffffffffffffffff168152602001908152602001600020549050919050565b6000600660008373ffffffffffffffffffffffffffffffffffffffff1673ffffffffffffffffffffffffffffffffffffffff16815260200190815260200160002060009054906101000a900460ff168015610a13575060011515600760008473ffffffffffffffffffffffffffffffffffffffff1673ffffffffffffffffffffffffffffffffffffffff16815260200190815260200160002060009054906101000a900460ff16151514155b9050919050565b606060018054610a2990611e2a565b80601f0160208091040260200160405190810160405280929190818152602001828054610a5590611e2a565b8015610aa25780601f10610a7757610100808354040283529160200191610aa2565b820191906000526020600020905b815481529060010190602001808311610a8557829003601f168201915b5050505050905090565b610abe610ab7610d30565b83836112c7565b5050565b610ad3610acd610d30565b83610fcb565b610b12576040517f08c379a0000000000000000000000000000000000000000000000000000000008152600401610b099061205e565b60405180910390fd5b610b1e84848484611434565b50505050565b6001600660008373ffffffffffffffffffffffffffffffffffffffff1673ffffffffffffffffffffffffffffffffffffffff16815260200190815260200160002060006101000a81548160ff02191690831515021790555050565b6060610b8a82610ce5565b6000610b94611490565b90506000815111610bb45760405180602001604052806000815250610bdf565b80610bbe846114a7565b604051602001610bcf9291906121b8565b6040516020818303038152906040525b915050919050565b6000600560008473ffffffffffffffffffffffffffffffffffffffff1673ffffffffffffffffffffffffffffffffffffffff16815260200190815260200160002060008373ffffffffffffffffffffffffffffffffffffffff1673ffffffffffffffffffffffffffffffffffffffff16815260200190815260200160002060009054906101000a900460ff16905092915050565b60007f01ffc9a7000000000000000000000000000000000000000000000000000000007bffffffffffffffffffffffffffffffffffffffffffffffffffffffff1916827bffffffffffffffffffffffffffffffffffffffffffffffffffffffff1916149050919050565b610cee81611608565b610d2d576040517f08c379a0000000000000000000000000000000000000000000000000000000008152600401610d24906120ca565b60405180910390fd5b50565b600033905090565b816004600083815260200190815260200160002060006101000a81548173ffffffffffffffffffffffffffffffffffffffff021916908373ffffffffffffffffffffffffffffffffffffffff160217905550808273ffffffffffffffffffffffffffffffffffffffff16610dab836107fd565b73ffffffffffffffffffffffffffffffffffffffff167f8c5be1e5ebec7d5bd14f71427d1e84f3dd0314c0f7b2291e5b200ac8c7c3b92560405160405180910390a45050565b600073ffffffffffffffffffffffffffffffffffffffff168273ffffffffffffffffffffffffffffffffffffffff161415610e61576040517f08c379a0000000000000000000000000000000000000000000000000000000008152600401610e5890612228565b60405180910390fd5b610e6a81611608565b15610eaa576040517f08c379a0000000000000000000000000000000000000000000000000000000008152600401610ea190612294565b60405180910390fd5b610eb660008383611674565b6001600360008473ffffffffffffffffffffffffffffffffffffffff1673ffffffffffffffffffffffffffffffffffffffff1681526020019081526020016000206000828254610f0691906122e3565b92505081905550816002600083815260200190815260200160002060006101000a81548173ffffffffffffffffffffffffffffffffffffffff021916908373ffffffffffffffffffffffffffffffffffffffff160217905550808273ffffffffffffffffffffffffffffffffffffffff16600073ffffffffffffffffffffffffffffffffffffffff167fddf252ad1be2c89b69c2b068fc378daa952ba7f163c4a11628f55a4df523b3ef60405160405180910390a4610fc760008383611679565b5050565b600080610fd7836107fd565b90508073ffffffffffffffffffffffffffffffffffffffff168473ffffffffffffffffffffffffffffffffffffffff16148061101957506110188185610be7565b5b8061105757508373ffffffffffffffffffffffffffffffffffffffff1661103f846104c9565b73ffffffffffffffffffffffffffffffffffffffff16145b91505092915050565b8273ffffffffffffffffffffffffffffffffffffffff16611080826107fd565b73ffffffffffffffffffffffffffffffffffffffff16146110d6576040517f08c379a00000000000000000000000000000000000000000000000000000000081526004016110cd906123ab565b60405180910390fd5b600073ffffffffffffffffffffffffffffffffffffffff168273ffffffffffffffffffffffffffffffffffffffff161415611146576040517f08c379a000000000000000000000000000000000000000000000000000000000815260040161113d9061243d565b60405180910390fd5b611151838383611674565b61115c600082610d38565b6001600360008573ffffffffffffffffffffffffffffffffffffffff1673ffffffffffffffffffffffffffffffffffffffff16815260200190815260200160002060008282546111ac919061245d565b925050819055506001600360008473ffffffffffffffffffffffffffffffffffffffff1673ffffffffffffffffffffffffffffffffffffffff168152602001908152602001600020600082825461120391906122e3565b92505081905550816002600083815260200190815260200160002060006101000a81548173ffffffffffffffffffffffffffffffffffffffff021916908373ffffffffffffffffffffffffffffffffffffffff160217905550808273ffffffffffffffffffffffffffffffffffffffff168473ffffffffffffffffffffffffffffffffffffffff167fddf252ad1be2c89b69c2b068fc378daa952ba7f163c4a11628f55a4df523b3ef60405160405180910390a46112c2838383611679565b505050565b8173ffffffffffffffffffffffffffffffffffffffff168373ffffffffffffffffffffffffffffffffffffffff161415611336576040517f08c379a000000000000000000000000000000000000000000000000000000000815260040161132d906124dd565b60405180910390fd5b80600560008573ffffffffffffffffffffffffffffffffffffffff1673ffffffffffffffffffffffffffffffffffffffff16815260200190815260200160002060008473ffffffffffffffffffffffffffffffffffffffff1673ffffffffffffffffffffffffffffffffffffffff16815260200190815260200160002060006101000a81548160ff0219169083151502179055508173ffffffffffffffffffffffffffffffffffffffff168373ffffffffffffffffffffffffffffffffffffffff167f17307eab39ab6107e8899845ad3d59bd9653f200f220920489ca2b5937696c318360405161142791906118ec565b60405180910390a3505050565b61143f848484611060565b61144b8484848461167e565b61148a576040517f08c379a00000000000000000000000000000000000000000000000000000000081526004016114819061256f565b60405180910390fd5b50505050565b606060405180602001604052806000815250905090565b606060008214156114ef576040518060400160405280600181526020017f30000000000000000000000000000000000000000000000000000000000000008152509050611603565b600082905060005b6000821461152157808061150a9061258f565b915050600a8261151a9190612607565b91506114f7565b60008167ffffffffffffffff81111561153d5761153c611c0d565b5b6040519080825280601f01601f19166020018201604052801561156f5781602001600182028036833780820191505090505b5090505b600085146115fc57600182611588919061245d565b9150600a856115979190612638565b60306115a391906122e3565b60f81b8183815181106115b9576115b8612669565b5b60200101907effffffffffffffffffffffffffffffffffffffffffffffffffffffffffffff1916908160001a905350600a856115f59190612607565b9450611573565b8093505050505b919050565b60008073ffffffffffffffffffffffffffffffffffffffff166002600084815260200190815260200160002060009054906101000a900473ffffffffffffffffffffffffffffffffffffffff1673ffffffffffffffffffffffffffffffffffffffff1614159050919050565b505050565b505050565b600061169f8473ffffffffffffffffffffffffffffffffffffffff16611815565b15611808578373ffffffffffffffffffffffffffffffffffffffff1663150b7a026116c8610d30565b8786866040518563ffffffff1660e01b81526004016116ea94939291906126ed565b602060405180830381600087803b15801561170457600080fd5b505af192505050801561173557506040513d601f19601f82011682018060405250810190611732919061274e565b60015b6117b8573d8060008114611765576040519150601f19603f3d011682016040523d82523d6000602084013e61176a565b606091505b506000815114156117b0576040517f08c379a00000000000000000000000000000000000000000000000000000000081526004016117a79061256f565b60405180910390fd5b805181602001fd5b63150b7a0260e01b7bffffffffffffffffffffffffffffffffffffffffffffffffffffffff1916817bffffffffffffffffffffffffffffffffffffffffffffffffffffffff19161491505061180d565b600190505b949350505050565b6000808273ffffffffffffffffffffffffffffffffffffffff163b119050919050565b6000604051905090565b600080fd5b600080fd5b60007fffffffff0000000000000000000000000000000000000000000000000000000082169050919050565b6118818161184c565b811461188c57600080fd5b50565b60008135905061189e81611878565b92915050565b6000602082840312156118ba576118b9611842565b5b60006118c88482850161188f565b91505092915050565b60008115159050919050565b6118e6816118d1565b82525050565b600060208201905061190160008301846118dd565b92915050565b600081519050919050565b600082825260208201905092915050565b60005b83811015611941578082015181840152602081019050611926565b83811115611950576000848401525b50505050565b6000601f19601f8301169050919050565b600061197282611907565b61197c8185611912565b935061198c818560208601611923565b61199581611956565b840191505092915050565b600060208201905081810360008301526119ba8184611967565b905092915050565b6000819050919050565b6119d5816119c2565b81146119e057600080fd5b50565b6000813590506119f2816119cc565b92915050565b600060208284031215611a0e57611a0d611842565b5b6000611a1c848285016119e3565b91505092915050565b600073ffffffffffffffffffffffffffffffffffffffff82169050919050565b6000611a5082611a25565b9050919050565b611a6081611a45565b82525050565b6000602082019050611a7b6000830184611a57565b92915050565b611a8a81611a45565b8114611a9557600080fd5b50565b600081359050611aa781611a81565b92915050565b60008060408385031215611ac457611ac3611842565b5b6000611ad285828601611a98565b9250506020611ae3858286016119e3565b9150509250929050565b600060208284031215611b0357611b02611842565b5b6000611b1184828501611a98565b91505092915050565b600080600060608486031215611b3357611b32611842565b5b6000611b4186828701611a98565b9350506020611b5286828701611a98565b9250506040611b63868287016119e3565b9150509250925092565b611b76816119c2565b82525050565b6000602082019050611b916000830184611b6d565b92915050565b611ba0816118d1565b8114611bab57600080fd5b50565b600081359050611bbd81611b97565b92915050565b60008060408385031215611bda57611bd9611842565b5b6000611be885828601611a98565b9250506020611bf985828601611bae565b9150509250929050565b600080fd5b600080fd5b7f4e487b7100000000000000000000000000000000000000000000000000000000600052604160045260246000fd5b611c4582611956565b810181811067ffffffffffffffff82111715611c6457611c63611c0d565b5b80604052505050565b6000611c77611838565b9050611c838282611c3c565b919050565b600067ffffffffffffffff821115611ca357611ca2611c0d565b5b611cac82611956565b9050602081019050919050565b82818337600083830152505050565b6000611cdb611cd684611c88565b611c6d565b905082815260208101848484011115611cf757611cf6611c08565b5b611d02848285611cb9565b509392505050565b600082601f830112611d1f57611d1e611c03565b5b8135611d2f848260208601611cc8565b91505092915050565b60008060008060808587031215611d5257611d51611842565b5b6000611d6087828801611a98565b9450506020611d7187828801611a98565b9350506040611d82878288016119e3565b925050606085013567ffffffffffffffff811115611da357611da2611847565b5b611daf87828801611d0a565b91505092959194509250565b60008060408385031215611dd257611dd1611842565b5b6000611de085828601611a98565b9250506020611df185828601611a98565b9150509250929050565b7f4e487b7100000000000000000000000000000000000000000000000000000000600052602260045260246000fd5b60006002820490506001821680611e4257607f821691505b60208210811415611e5657611e55611dfb565b5b50919050565b7f4552433732313a20617070726f76616c20746f2063757272656e74206f776e6560008201527f7200000000000000000000000000000000000000000000000000000000000000602082015250565b6000611eb8602183611912565b9150611ec382611e5c565b604082019050919050565b60006020820190508181036000830152611ee781611eab565b9050919050565b7f4552433732313a20617070726f76652063616c6c6572206973206e6f7420746f60008201527f6b656e206f776e6572206e6f7220617070726f76656420666f7220616c6c0000602082015250565b6000611f4a603e83611912565b9150611f5582611eee565b604082019050919050565b60006020820190508181036000830152611f7981611f3d565b9050919050565b7f596f752063616e6e6f74206d6f726520736f7576696e65722100000000000000600082015250565b6000611fb6601983611912565b9150611fc182611f80565b602082019050919050565b60006020820190508181036000830152611fe581611fa9565b9050919050565b7f4552433732313a2063616c6c6572206973206e6f7420746f6b656e206f776e6560008201527f72206e6f7220617070726f766564000000000000000000000000000000000000602082015250565b6000612048602e83611912565b915061205382611fec565b604082019050919050565b600060208201905081810360008301526120778161203b565b9050919050565b7f4552433732313a20696e76616c696420746f6b656e2049440000000000000000600082015250565b60006120b4601883611912565b91506120bf8261207e565b602082019050919050565b600060208201905081810360008301526120e3816120a7565b9050919050565b7f4552433732313a2061646472657373207a65726f206973206e6f74206120766160008201527f6c6964206f776e65720000000000000000000000000000000000000000000000602082015250565b6000612146602983611912565b9150612151826120ea565b604082019050919050565b6000602082019050818103600083015261217581612139565b9050919050565b600081905092915050565b600061219282611907565b61219c818561217c565b93506121ac818560208601611923565b80840191505092915050565b60006121c48285612187565b91506121d08284612187565b91508190509392505050565b7f4552433732313a206d696e7420746f20746865207a65726f2061646472657373600082015250565b6000612212602083611912565b915061221d826121dc565b602082019050919050565b6000602082019050818103600083015261224181612205565b9050919050565b7f4552433732313a20746f6b656e20616c7265616479206d696e74656400000000600082015250565b600061227e601c83611912565b915061228982612248565b602082019050919050565b600060208201905081810360008301526122ad81612271565b9050919050565b7f4e487b7100000000000000000000000000000000000000000000000000000000600052601160045260246000fd5b60006122ee826119c2565b91506122f9836119c2565b9250827fffffffffffffffffffffffffffffffffffffffffffffffffffffffffffffffff0382111561232e5761232d6122b4565b5b828201905092915050565b7f4552433732313a207472616e736665722066726f6d20696e636f72726563742060008201527f6f776e6572000000000000000000000000000000000000000000000000000000602082015250565b6000612395602583611912565b91506123a082612339565b604082019050919050565b600060208201905081810360008301526123c481612388565b9050919050565b7f4552433732313a207472616e7366657220746f20746865207a65726f2061646460008201527f7265737300000000000000000000000000000000000000000000000000000000602082015250565b6000612427602483611912565b9150612432826123cb565b604082019050919050565b600060208201905081810360008301526124568161241a565b9050919050565b6000612468826119c2565b9150612473836119c2565b925082821015612486576124856122b4565b5b828203905092915050565b7f4552433732313a20617070726f766520746f2063616c6c657200000000000000600082015250565b60006124c7601983611912565b91506124d282612491565b602082019050919050565b600060208201905081810360008301526124f6816124ba565b9050919050565b7f4552433732313a207472616e7366657220746f206e6f6e20455243373231526560008201527f63656976657220696d706c656d656e7465720000000000000000000000000000602082015250565b6000612559603283611912565b9150612564826124fd565b604082019050919050565b600060208201905081810360008301526125888161254c565b9050919050565b600061259a826119c2565b91507fffffffffffffffffffffffffffffffffffffffffffffffffffffffffffffffff8214156125cd576125cc6122b4565b5b600182019050919050565b7f4e487b7100000000000000000000000000000000000000000000000000000000600052601260045260246000fd5b6000612612826119c2565b915061261d836119c2565b92508261262d5761262c6125d8565b5b828204905092915050565b6000612643826119c2565b915061264e836119c2565b92508261265e5761265d6125d8565b5b828206905092915050565b7f4e487b7100000000000000000000000000000000000000000000000000000000600052603260045260246000fd5b600081519050919050565b600082825260208201905092915050565b60006126bf82612698565b6126c981856126a3565b93506126d9818560208601611923565b6126e281611956565b840191505092915050565b60006080820190506127026000830187611a57565b61270f6020830186611a57565b61271c6040830185611b6d565b818103606083015261272e81846126b4565b905095945050505050565b60008151905061274881611878565b92915050565b60006020828403121561276457612763611842565b5b600061277284828501612739565b9150509291505056fea2646970667358221220f6714b3820416ed03a4b39a8bea7e01cccfd01e85d54365eda917595f0e5507764736f6c63430008090033",
  "linkReferences": {},
  "deployedLinkReferences": {}
}